S00D00004D6F7461732E7372656313
S113000012C0D5C6F3C62AC029C028C027C026C03E
S113001025C024C023C033C021C020C01FC01EC0BF
S11300201DC01CC01BC011241FBECFE5D4E0DEBF21
S1130030CDBF10E0A0E6B0E0ECE0F6E102C0059030
S11300400D92AC38B107D9F720E0ACE8B0E001C0BC
S11300501D92AF3DB207E1F77DD2D6CAD1CFCF937F
S1130060DF93CDB7DEB73FD082E690E074D045D8B9
S113007019D8FBD83CD97894DF91CF9108951F9279
S11300800F9200905F000F9211242F933F934F9390
S11300905F936F937F938F939F93AF93BF93EF93EC
S11300A0FF93CF93DF931F92CDB7DEB78CE290E03E
S11300B0FC01808171D089838FEF89830F90DF9158
S11300C0CF91FF91EF91BF91AF919F918F917F91CC
S11300D06F915F914F913F912F910F9000925F002C
S11300E00F901F901895CF93DF93CDB7DEB789E2B9
S11300F090E02CE0FC01208380E490E0FC0110827D
S11301008BE290E02BE230E0F90120812260FC01D7
S113011020838AE290E028E9FC012083DF91CF91DB
S11301200895CF93DF931F92CDB7DEB78983000084
S11301308BE290E0FC018081882F90E08072992707
S11301400097B1F38CE290E02981FC0120830F90A9
S1130150DF91CF910895CF93DF9300D0CDB7DEB771
S11301609A8389830AC089819A81FC018081D9DFBD
S113017089819A8101969A83898389819A81FC0174
S11301808081882381F78DE0CCDF8AE0CADF0F907D
S11301900F90DF91CF910895CF93DF9300D0CDB727
S11301A0DEB78A8380919500882F90E001968F7343
S11301B09078992324F40197806C9F6F019689832A
S11301C0809196009981981779F080919500882FF5
S11301D090E089569F4F2A81FC0120838981809376
S11301E0950080E090E002C08FEF9FEF0F900F909A
S11301F0DF91CF910895CF93DF9300D0CDB7DEB7D1
S113020090919500809196009817F1F08091960056
S1130210882F90E089569F4FFC018081882F90E0C1
S11302209A83898380919600882F90E001968F733A
S11302309078992324F40197806C9F6F01968093A2
S1130240960089819A8102C08FEF9FEF0F900F90E3
S1130250DF91CF910895CF93DF93CDB7DEB790911F
S1130260950080919600981711F480E001C081E018
S1130270DF91CF910895CF93DF9300D0CDB7DEB750
S113028089836A8389818130A9F58A81882F90E0E6
S11302908230910539F083309105C1F081309105A8
S11302A059F05FC085E390E025E330E0F901208157
S11302B02160FC0120831DC085E390E025E330E04C
S11302C0F90120812260FC01208313C085E390E0C2
S11302D025E330E0F90120812160FC01208385E3DE
S11302E090E025E330E0F90120812260FC012083C5
S11302F0000037C089818823A1F58A81882F90E086
S11303008230910539F083309105C1F08130910537
S113031059F027C085E390E025E330E0F90120811E
S11303202E7FFC0120831DC085E390E025E330E0AF
S1130330F90120812D7FFC01208313C085E390E027
S113034025E330E0F90120812E7FFC01208385E341
S113035090E025E330E0F90120812D7FFC0120832A
S113036000000F900F90DF91CF910895CF93DF930A
S1130370CDB7DEB763970FB6F894DEBF0FBECDBF1F
S1130380898B7B8B6A8B86E089831A828EE78093C4
S1130390D7008FEF8093D80089818093D900898911
S11303A08093DA001092DB008A899B89892F992730
S11303B08093DC008A898093DD008FEE8093DE00D9
S11303C087ED90E093D080E090E0A0E2B1E48B83ED
S11303D09C83AD83BE8320E030E04AE753E46B8125
S11303E07C818D819E81ADD8DC01CB018F83988780
S11303F0A987BA8720E030E040E85FE36F81788521
S113040089859A858DD788232CF481E090E09C8798
S11304108B873BC020E03FEF4FE757E46F8178853F
S113042089859A858AD818163CF520E030E040E2A8
S113043051E46B817C818D819E8183D8DC01CB0169
S1130440BC01CD01D9D7DC01CB019C878B870FC0C0
S113045089E190E09E878D878D859E850197F1F7D0
S11304609E878D878B859C8501979C878B878B8541
S11304709C85009769F713C06F81788589859A8573
S1130480BBD7DC01CB019C878B878B859C85988BA4
S11304908F878F8598890197F1F7988B8F87DBDE9B
S11304A081309105D1F4A7DE8A838A818E37D9F70A
S11304B0A2DE8093D8009FDE8093D9009CDE8093D7
S11304C0DA0099DE8093DB0096DE8093DC0093DE15
S11304D08093DD0090DE8093DE0063960FB6F8947F
S11304E0DEBF0FBECDBFDF91CF910895CF93DF93D1
S11304F000D0CDB7DEB79A83898389819A81FC01C4
S113050080810FDE89819A81FC0181810ADE8981E3
S11305109A81FC01828105DE89819A81FC018381B3
S113052000DE89819A81FC018481FBDD89819A81C5
S1130530FC018581F6DD89819A81FC018681F1DDEA
S113054089819A81FC018781ECDD0F900F90DF9106
S1130550CF910895CF93DF93CDB7DEB780DDFFD37E
S1130560FECFCF93DF93CDB7DEB78CE890E0FC01EC
S113057080818170882339F08DE690E0ECDD84E0A1
S113058080938D0003C081E080938D00DF91CF9133
S11305900895CF93DF93CDB7DEB72E970FB6F894B7
S11305A0DEBF0FBECDBFDDD590938F0080938E004C
S11305B093D662E081E05FDE80E090E0AAE7B4E4F5
S11305C089839A83AB83BC8320E030E04AE753E419
S11305D069817A818B819C81B4D7DC01CB018D83C5
S11305E09E83AF83B88720E030E040E85FE36D810D
S11305F07E818F81988594D688232CF481E090E0C5
S11306009A8789873BC020E03FEF4FE757E46D812D
S11306107E818F81988591D718163CF520E030E0D3
S113062040E251E469817A818B819C818AD7DC0123
S1130630CB01BC01CD01E0D6DC01CB019A878987CF
S11306400FC089E190E09C878B878B859C850197FF
S1130650F1F79C878B8789859A8501979A87898783
S113066089859A85009769F713C06D817E818F8192
S11306709885C2D6DC01CB019A87898789859A85BA
S11306809E878D878D859E850197F1F79E878D873F
S113069062E080E0F0DD82E080938D002E960FB65C
S11306A0F894DEBF0FBECDBFDF91CF910895CF93F5
S11306B0DF93CDB7DEB762970FB6F894DEBF0FBEF7
S11306C0CDBF1A8219821C821B82FBD59A8389832F
S11306D048D59C838B8380918E0090918F002B81D1
S11306E03C812817390730F089819A81823091053D
S11306F008F482C01A82198280E090E8ABE3B5E482
S11307008D839E83AF83B88720E030E04AE753E4CB
S11307106D817E818F81988514D7DC01CB01898717
S11307209A87AB87BC8720E030E040E85FE36985C7
S11307307A858B859C85F4D588232CF481E090E020
S11307409E878D873BC020E03FEF4FE757E46985E4
S11307507A858B859C85F1D618163CF520E030E02F
S113076040E251E46D817E818F819885EAD6DC0177
S1130770CB01BC01CD0140D6DC01CB019E878D8726
S11307800FC089E190E0988B8F878F8598890197B6
S1130790F1F7988B8F878D859E8501979E878D872E
S11307A08D859E85009769F713C069857A858B8549
S11307B09C8522D6DC01CB019E878D878D859E8505
S11307C09A8B898B89899A890197F1F79A8B898BFE
S11307D078D59A8389838091600090916100298102
S11307E03A818217930720F483E080938D0007C039
S11307F082E080938D0003C082E080938D00629636
S11308000FB6F894DEBF0FBECDBFDF91CF91089530
S1130810CF93DF93CDB7DEB7A0970FB6F894DEBFC2
S11308200FBECDBF1A8219821C821B828CE890E015
S1130830FC0180818270882359F48CE890E0FC01EB
S113084020812260FC01208361E070E083E08EDD82
S113085063E081E010DD80E090E0AAE7B4E48D83FA
S11308609E83AF83B88720E030E04AE753E46D818C
S11308707E818F81988565D6DC01CB0189879A8733
S1130880AB87BC8720E030E040E85FE369857A8588
S11308908B859C8545D588232CF481E090E09E8748
S11308A08D873BC020E03FEF4FE757E469857A85A9
S11308B08B859C8542D618163CF520E030E040E25A
S11308C051E46D817E818F8198853BD6DC01CB011B
S11308D0BC01CD0191D5DC01CB019E878D870FC072
S11308E089E190E0988B8F878F8598890197F1F73C
S11308F0988B8F878D859E8501979E878D878D85A3
S11309009E85009769F713C069857A858B859C85D8
S113091073D5DC01CB019E878D878D859E859A8B4F
S1130920898B89899A890197F1F79A8B898B63E07E
S113093080E0A1DCD1D415D49C838B8380E090E843
S1130940ABE3B5E48B8B9C8BAD8BBE8B20E030E0AE
S11309504AE753E46B897C898D899E89F2D5DC0151
S1130960CB018F8B988FA98FBA8F20E030E040E8BD
S11309705FE36F89788D898D9A8DD2D488232CF486
S113098081E090E09C8F8B8F3BC020E03FEF4FE7EE
S113099057E46F89788D898D9A8DCFD518163CF5DB
S11309A020E030E040E251E46B897C898D899E89A6
S11309B0C8D5DC01CB01BC01CD011ED5DC01CB01C6
S11309C09C8F8B8F0FC089E190E09E8F8D8F8D8DD2
S11309D09E8D0197F1F79E8F8D8F8B8D9C8D019746
S11309E09C8F8B8F8B8D9C8D009769F713C06F89BB
S11309F0788D898D9A8D00D5DC01CB019C8F8B8FEE
S1130A008B8D9C8D98A38F8F8F8D98A10197F1F773
S1130A1098A38F8FA6D39C838B8353D49A83898383
S1130A20809160009091610029813A8128173907EB
S1130A3048F480918E0090918F002B813C8128177F
S1130A40390720F483E080938D000FC061E070E0EB
S1130A5086E18CDC8CE890E0FC0120812D7FFC0198
S1130A6020833AD482E080938D00A0960FB6F89448
S1130A70DEBF0FBECDBFDF91CF910895CF93DF933B
S1130A80CDB7DEB7AE970FB6F894DEBF0FBECDBFBD
S1130A901A8219821C821B8261E081E0ECDB80E017
S1130AA090E0AAEFB4E48D839E83AF83B88720E0FF
S1130AB030E04AE753E46D817E818F81988541D58A
S1130AC0DC01CB0189879A87AB87BC8720E030E0C3
S1130AD040E85FE369857A858B859C8521D48823EA
S1130AE02CF481E090E09E878D873BC020E03FEFAF
S1130AF04FE757E469857A858B859C851ED5181642
S1130B003CF520E030E040E251E46D817E818F814C
S1130B10988517D5DC01CB01BC01CD016DD4DC0176
S1130B20CB019E878D870FC089E190E0988B8F87DA
S1130B308F8598890197F1F7988B8F878D859E858E
S1130B4001979E878D878D859E85009769F713C0D1
S1130B5069857A858B859C854FD4DC01CB019E8782
S1130B608D878D859E859A8B898B89899A89019732
S1130B70F1F79A8B898BB0D3A4D39A838983F1D26A
S1130B809C838B8389819A818230910508F46FC09C
S1130B9062E081E070DB80E090E0AAEFB4E48B8B4C
S1130BA09C8BAD8BBE8B20E030E04AE753E46B892D
S1130BB07C898D899E89C5D4DC01CB018F8B988F6C
S1130BC0A98FBA8F20E030E040E85FE36F89788D29
S1130BD0898D9A8DA5D388232CF481E090E09C8F95
S1130BE08B8F3BC020E03FEF4FE757E46F89788D50
S1130BF0898D9A8DA2D418163CF520E030E040E2AD
S1130C0051E46B897C898D899E899BD4DC01CB015D
S1130C10BC01CD01F1D3DC01CB019C8F8B8F0FC0C4
S1130C2089E190E09E8F8D8F8D8D9E8D0197F1F7D8
S1130C309E8F8D8F8B8D9C8D01979C8F8B8F8B8D31
S1130C409C8D009769F713C06F89788D898D9A8D73
S1130C50D3D3DC01CB019C8F8B8F8B8D9C8D98A380
S1130C608F8F8F8D98A10197F1F798A38F8F63E0F1
S1130C7081E001DB80E090E0AAEFB4E489A39AA3C9
S1130C80ABA3BCA320E030E04AE753E469A17AA116
S1130C908BA19CA156D4DC01CB018DA39EA3AFA351
S1130CA0B8A720E030E040E85FE36DA17EA18FA10A
S1130CB098A536D388232CF481E090E09AA789A7DD
S1130CC03BC020E03FEF4FE757E46DA17EA18FA129
S1130CD098A533D418163CF520E030E040E251E406
S1130CE069A17AA18BA19CA12CD4DC01CB01BC010C
S1130CF0CD0182D3DC01CB019AA789A70FC089E17A
S1130D0090E09CA78BA78BA59CA50197F1F79CA7C6
S1130D108BA789A59AA501979AA789A789A59AA5BA
S1130D20009769F713C06DA17EA18FA198A564D324
S1130D30DC01CB019AA789A789A59AA59EA78DA7AF
S1130D408DA59EA50197F1F79EA78DA7AE960FB628
S1130D50F894DEBF0FBECDBFDF91CF910895CF933E
S1130D60DF93CDB7DEB780918D00882F90E082307D
S1130D709105A1F08330910534F4009759F0813046
S1130D80910551F011C08330910551F084309105E3
S1130D9049F00AC0E6DB08C0FCDB06C088DC04C0FE
S1130DA037DD02C06BDE0000DF91CF9108951F9202
S1130DB00F9200905F000F9211248F939F93CF9313
S1130DC0DF93CDB7DEB780919300909194000196A4
S1130DD09093940080939300DF91CF919F918F9192
S1130DE00F9000925F000F901F9018951F920F9222
S1130DF000905F000F9211242F933F934F935F93C2
S1130E006F937F938F939F93AF93BF93EF93FF93CE
S1130E10CF93DF93CDB7DEB7809190008823D9F0CC
S1130E2040D28CE490E0FC01808191819093920007
S1130E30809391008CE490E0FC0111821082109266
S1130E40900085E590E025E530E0F90120812460FB
S1130E50FC0120830DC015D281E08093900085E5CC
S1130E6090E025E530E0F90120812B7FFC0120830F
S1130E70DF91CF91FF91EF91BF91AF919F918F91AE
S1130E807F916F915F914F913F912F910F900092BD
S1130E905F000F901F901895CF93DF93CDB7DEB707
S1130EA0A0970FB6F894DEBF0FBECDBF82E390E0EB
S1130EB022E330E0F90120812061FC01208380E0FD
S1130EC090E0A0E2B1E489839A83AB83BC832BEAEC
S1130ED03AEA4AEA5EE369817A818B819C8131D363
S1130EE0DC01CB018D839E83AF83B88720E030E0A3
S1130EF040E85EE369817A818B819C8122D3DC01A5
S1130F00CB0189879A87AB87BC8720E030E040E833
S1130F105FE36D817E818F81988502D288231CF4E2
S1130F2081E08D87A7C020E03FEF4FE757E4698554
S1130F307A858B859C8501D318160CF074C020E04B
S1130F4030E04AE754E469817A818B819C81ECD159
S1130F50DC01CB018E879F87A88BB98B20E030E022
S1130F604AE753E46E857F8588899989EAD2DC0152
S1130F70CB018A8B9B8BAC8BBD8B20E030E040E8AF
S1130F805FE36A897B898C899D89CAD188232CF483
S1130F9081E090E09F8B8E8B3BC020E03FEF4FE7DA
S1130FA057E46A897B898C899D89C7D218163CF5D8
S1130FB020E030E040E251E46E857F85888999899C
S1130FC0C0D2DC01CB01BC01CD0116D2DC01CB01C6
S1130FD09F8B8E8B0FC089E190E0998F888F888DCD
S1130FE0998D0197F1F7998F888F8E899F89019741
S1130FF09F8B8E8B8E899F89009769F73BC06A8986
S11310007B898C899D89F8D1DC01CB019F8B8E8BE8
S11310108E899F899B8F8A8F8A8D9B8D0197F1F78B
S11310209B8F8A8F27C020E030E04FE753E46D8127
S11310307E818F81988581D21816A4F469857A857A
S11310408B859C85D9D1DC01CB019D8F8C8F8C8DB8
S11310509D8D9F8F8E8F8E8D9F8D0197F1F79F8F22
S11310608E8F0EC06D817E818F819885C5D1DC0104
S1131070CB018D878D8588A388A18A95F1F788A3F4
S113108082E390E022E330E0F90120812F7EFC012D
S11310902083A0960FB6F894DEBF0FBECDBFDF91BC
S11310A0CF910895CF93DF93CDB7DEB781E390E07E
S11310B021E330E0F90120812B7FFC01208382E3CE
S11310C090E022E330E0F90120812460FC012083D8
S11310D085E590E025E530E0F90120812360FC01FD
S11310E020838BE590E02BE530E0F901208120643A
S11310F0FC012083DF91CF910895CF93DF93CDB787
S1131100DEB781E390E021E330E0F9012081206142
S1131110FC01208382E390E022E330E0F9012081A6
S11311202F7EFC01208382E390E022E330E0F9018A
S113113020812860FC01208385E590E025E530E0EE
S1131140F90120812C60FC0120838BE590E02BE5E4
S113115030E0F90120812068FC012083DF91CF91E8
S11311600895CF93DF93CDB7DEB72E970FB6F894DB
S1131170DEBF0FBECDBF90DE80E090E0AAE7B4E40E
S113118089839A83AB83BC8320E030E04AE753E44D
S113119069817A818B819C81D4D1DC01CB018D83DF
S11311A09E83AF83B88720E030E040E85FE36D8141
S11311B07E818F819885B4D088232CF481E090E0DF
S11311C09A8789873BC020E03FEF4FE757E46D8162
S11311D07E818F819885B1D118163CF520E030E0EE
S11311E040E251E469817A818B819C81AAD1DC013E
S11311F0CB01BC01CD0100D1DC01CB019A878987E9
S11312000FC089E190E09C878B878B859C85019733
S1131210F1F79C878B8789859A8501979A878987B7
S113122089859A85009769F713C06D817E818F81C6
S11312309885E2D0DC01CB019A87898789859A85D4
S11312409E878D878D859E850197F1F79E878D8773
S113125080919100909192002E960FB6F894DEBF83
S11312600FBECDBFDF91CF910895CF93DF93CDB75C
S1131270DEB78CE490E0FC0111821082DF91CF9103
S11312800895CF93DF93CDB7DEB78EE490E02EE4DC
S113129030E0F90120812160FC012083DF91CF91AE
S11312A00895CF93DF93CDB7DEB78EE490E02EE4BC
S11312B030E0F90120812E7FFC012083DF91CF9162
S11312C00895CF93DF93CDB7DEB7809193009091CB
S11312D09400DF91CF910895CF93DF93CDB7DEB71C
S11312E01092940010929300DF91CF910895CF93C0
S11312F0DF93CDB7DEB787E390E027E330E0F90171
S113130020812160FC01208388E390E028E330E021
S1131310F90120812E7FFC012083DF91CF91089574
S113132097D008F481E008950CD0CDC0C5D040F02A
S1131330BCD030F021F45F3F19F0AEC05111F7C0BA
S1131340B1C0D2D098F39923C9F35523B1F3951BB7
S1131350550BBB27AA2762177307840738F09F5FD2
S11313605F4F220F331F441FAA1FA9F333D00E2E41
S11313703AF0E0E830D091505040E695001CCAF7AE
S113138029D0FE2F27D0660F771F881FBB1F261773
S113139037074807AB07B0E809F0BB0B802DBF0146
S11313A0FF2793585F4F2AF09E3F510568F074C0A1
S11313B0BEC05F3FECF3983EDCF386957795679566
S11313C0B795F7959F5FC9F7880F911D96958795F7
S11313D097F90895E1E0660F771F881FBB1F621716
S11313E073078407BA0720F0621B730B840BBA0BD4
S11313F0EE1F88F7E09508957FD088F09F5790F00E
S1131400B92F9927B751A0F0D1F0660F771F881F25
S1131410991F1AF0BA95C9F712C0B13081F086D07D
S1131420B1E0089583C0672F782F8827B85F39F01B
S1131430B93FCCF3869577956795B395D9F73EF484
S113144090958095709561957F4F8F4F9F4F08952C
S1131450990F0008550FAA0BE0E8FEEF16161706C1
S1131460E807F907C0F012161306E407F50798F029
S1131470621B730B840B950B39F40A2661F0232B42
S1131480242B252B21F408950A2609F4A140A695BE
S11314908FEF811D811D089597F99F6780E870E0A3
S11314A060E008959FEF80EC089500240A941616D6
S11314B0170618060906089500240A94121613063E
S11314C0140605060895092E0394000C11F48823CC
S11314D052F0BB0F40F4BF2B11F460FF04C06F5FE8
S11314E07F4F8F4F9F4F089557FD9058440F551FBE
S11314F059F05F3F71F04795880F97FB991F61F092
S11315009F3F79F087950895121613061406551F08
S1131510F2CF4695F1DF08C0161617061806991F74
S1131520F1CF86957105610508940895E894BB2769
S113153066277727CB0197F908958ADF08F48FEFA0
S113154008950BD0C0CFB1DF28F0B6DF18F0952393
S113155009F0A2CFA7CF1124EACFC6DFA0F3959F4D
S1131560D1F3950F50E0551F629FF001729FBB2786
S1131570F00DB11D639FAA27F00DB11DAA1F649F32
S11315806627B00DA11D661F829F2227B00DA11DE5
S1131590621F739FB00DA11D621F839FA00D611D6B
S11315A0221F749F3327A00D611D231F849F600D8C
S11315B0211D822F762F6A2F11249F5750408AF0C5
S11315C0E1F088234AF0EE0FFF1FBB1F661F771F51
S11315D0881F91505040A9F79E3F510570F05CCF91
S11315E0A6CF5F3FECF3983EDCF38695779567953D
S11315F0B795F795E7959F5FC1F7FE2B880F911D6F
S10F16009695879597F90895F894FFCF0C
S113160C040053657269616C204F4B21004D6F745B
S113161C617320656E746572696E672044656275CA
S10F162C6767696E672073746174650061
S9030000FC
