S00D00004D6F7461732E7372656313
S113000012C087C9A5C92AC029C028C027C026C0D4
S113001025C024C023C034C021C020C01FC01EC0BE
S11300201DC01CC01BC011241FBECFE5D4E0DEBF21
S1130030CDBF10E0A0E6B0E0E6EBFBE102C0059026
S11300400D92AE39B107D9F720E0AEE9B0E001C0B6
S11300501D92A13FB207E1F7DFD3ABCDD1CFCF9350
S1130060DF93CDB7DEB740D082E690E075D0FDDAFD
S1130070D1DAC4DB05DC36D27894DF91CF910895D0
S11300801F920F9200905F000F9211242F933F93C1
S11300904F935F936F937F938F939F93AF93BF938C
S11300A0EF93FF93CF93DF931F92CDB7DEB78CE22C
S11300B090E0FC018081A7D189838FEF89830F9021
S11300C0DF91CF91FF91EF91BF91AF919F918F916C
S11300D07F916F915F914F913F912F910F9000927B
S11300E05F000F901F901895CF93DF93CDB7DEB7C5
S11300F089E290E02CE0FC01208380E490E0FC01A4
S113010010828BE290E02BE230E0F9012081226042
S1130110FC0120838AE290E028E9FC012083DF913E
S1130120CF910895CF93DF931F92CDB7DEB7898324
S113013000008BE290E0FC018081882F90E08072C7
S113014099270097B1F38CE290E02981FC01208388
S11301500F90DF91CF910895CF93DF9300D0CDB767
S1130160DEB79A8389830AC089819A81FC018081E0
S1130170D9DF89819A8101969A83898389819A81B9
S1130180FC018081882381F78DE0CCDF8AE0CADF1F
S11301900F900F90DF91CF910895CF93DF93CDB758
S11301A0DEB728970FB6F894DEBF0FBECDBF988791
S11301B08F831A8219828F8198859F709C838B8389
S11301C08F819885892F992782958F709E838D833F
S11301D08D819E81982F88279295907F29813A81DD
S11301E0820F931F9A8389838B819C819E838D8345
S11301F08B819C8199279C838B838D819E81892F00
S113020099279E838D838D819E81982F88272981AC
S11302103A81820F931F9A8389838B819C819E8369
S11302208D838B819C818F7099279C838B838D8197
S11302309E81929582958F7089279F7089279E83CE
S11302408D838D819E819C0122953295307F32274A
S1130250207F322789819A81280F391F8B819C81C5
S1130260820F931F9A83898389819A819C838B83CC
S113027089819A81929582958F7089279F708927A9
S11302809C01A7E4B3E089DC9695879596958795BC
S113029096958795806346DF4B815C81CA01929570
S11302A082958F7089279F7089279C01A7E4B3E00A
S11302B074DCBC0176956795769567957695679518
S11302C020E137E2629FC001639F900D729F900D01
S11302D011249A01281B390BC9019A8389838981C6
S11302E09A819695879596958795969587959C017D
S11302F0A5ECB0E252DC929582958F7089279F70AD
S1130300892780630FDF4B815C81CA0196958795AD
S113031096958795969587959C01A5ECB0E23DDC72
S1130320BC01729562956F7067277F70672728EE0E
S113033033E0629FC001639F900D729F900D112462
S11303409A01281B390BC9019A83898389819A816F
S113035096958795969587959C01ABE7B4E11DDC4E
S1130360969587958063DEDE4B815C81CA01969504
S11303708795969587959C01ABE7B4E10EDC9C01CB
S11303803695279564E6629FC001639F900D112402
S11303909A01281B390BC9019A83898389819A811F
S11303A09C01ADECBCECF9DB969587959695879509
S11303B0969587958063B6DE4B815C819A01ADEC9E
S11303C0BCECEBDB969587959695879596958795E6
S11303D0880F991F9C01220F331F220F331F820F96
S11303E0931F9A01281B390BC9019A838983898138
S11303F0806398DE28960FB6F894DEBF0FBECDBF9B
S1130400DF91CF910895CF93DF9300D0CDB7DEB7BE
S11304108A838091A700882F90E001968F7390784B
S1130420992324F40197806C9F6F019689838091AE
S1130430A8009981981779F08091A700882F90E0FF
S113044087559F4F2A81FC01208389818093A700CF
S113045080E090E002C08FEF9FEF0F900F90DF914C
S1130460CF910895CF93DF9300D0CDB7DEB79091AD
S1130470A7008091A8009817F1F08091A800882F18
S113048090E087559F4FFC018081882F90E09A83EC
S113049089838091A800882F90E001968F739078CB
S11304A0992324F40197806C9F6F01968093A80090
S11304B089819A8102C08FEF9FEF0F900F90DF9197
S11304C0CF910895CF93DF93CDB7DEB79091A70076
S11304D08091A800981711F480E001C081E0DF91B9
S11304E0CF910895CF93DF93CDB7DEB784E390E047
S11304F024E330E0F90120812160FC01208384E3BE
S113050090E024E330E0F90120812260FC012083A3
S113051085E390E025E330E0F90120812E7FFC01A2
S1130520208385E390E025E330E0F90120812D7FED
S1130530FC012083DF91CF910895CF93DF9300D006
S1130540CDB7DEB789836A8389818130A9F58A8131
S1130550882F90E08230910539F083309105C1F005
S11305608130910559F05FC085E390E025E330E0E8
S1130570F90120812160FC0120831DC085E390E006
S113058025E330E0F90120812260FC01208313C0BF
S113059085E390E025E330E0F90120812160FC014E
S11305A0208385E390E025E330E0F9012081226097
S11305B0FC012083000037C089818823A1F58A814A
S11305C0882F90E08230910539F083309105C1F095
S11305D08130910559F027C085E390E025E330E0B0
S11305E0F90120812E7FFC0120831DC085E390E06A
S11305F025E330E0F90120812D7FFC01208313C025
S113060085E390E025E330E0F90120812E7FFC01B1
S1130610208385E390E025E330E0F90120812D7FFC
S1130620FC01208300000F900F90DF91CF9108957B
S1130630CF93DF93CDB7DEB763970FB6F894DEBFE1
S11306400FBECDBF898B7B8B6A8B86E089831A8230
S11306508EE78093E9008FEF8093EA00898180938D
S1130660EB0089898093EC001092ED008A899B89C4
S1130670892F99278093EE008A898093EF008FEE6B
S11306808093F00089EE90E093D080E090E0A0E2C7
S1130690B1E48B839C83AD83BE8320E030E04AE7E2
S11306A053E46B817C818D819E8114DADC01CB0162
S11306B08F839887A987BA8720E030E040E85FE31A
S11306C06F81788589859A85F4D888232CF481E014
S11306D090E09C878B873BC020E03FEF4FE757E4D7
S11306E06F81788589859A85F1D918163CF520E0C3
S11306F030E040E251E46B817C818D819E81EAD9B6
S1130700DC01CB01BC01CD0140D9DC01CB019C87CC
S11307108B870FC089E190E09E878D878D859E85AC
S11307200197F1F79E878D878B859C8501979C8720
S11307308B878B859C85009769F713C06F817885BB
S113074089859A8522D9DC01CB019C878B878B858F
S11307509C85988B8F878F8598890197F1F7988B63
S11307608F87B0DE81309105D1F47CDE8A838A8163
S11307708E37D9F777DE8093EA0074DE8093EB003E
S113078071DE8093EC006EDE8093ED006BDE80936F
S1130790EE0068DE8093EF0065DE8093F0006396E0
S11307A00FB6F894DEBF0FBECDBFDF91CF91089591
S11307B0CF93DF9300D0CDB7DEB79A838983898145
S11307C09A81FC018081AEDC89819A81FC0181815E
S11307D0A9DC89819A81FC018281A4DC89819A81C6
S11307E0FC0183819FDC89819A81FC0184819ADCEC
S11307F089819A81FC01858195DC89819A81FC013A
S1130800868190DC89819A81FC0187818BDC0F9041
S11308100F90DF91CF910895CF93DF93CDB7DEB7DB
S1130820AA970FB6F894DEBF0FBECDBF18DC62E006
S113083081E083DE80E090E0AAE7B4E489839A83D0
S1130840AB83BC8320E030E04AE753E469817A81DA
S11308508B819C813FD9DC01CB018D839E83AF8347
S1130860B88720E030E040E85FE36D817E818F81CE
S113087098851FD888232CF481E090E09A87898793
S11308803BC020E03FEF4FE757E46D817E818F81CD
S113089098851CD918163CF520E030E040E251E47C
S11308A069817A818B819C8115D9DC01CB01BC01E2
S11308B0CD016BD8DC01CB019A8789870FC089E110
S11308C090E09C878B878B859C850197F1F79C87AB
S11308D08B8789859A8501979A87898789859A85DF
S11308E0009769F713C06D817E818F8198854DD8FB
S11308F0DC01CB019A87898789859A859E878D87B4
S11309008D859E850197F1F79E878D8761E081E053
S113091014DE80E090E0AAE7B4E48F87988BA98B7B
S1130920BA8B20E030E04AE753E46F8578898989FF
S11309309A89D0D8DC01CB018B8B9C8BAD8BBE8B81
S113094020E030E040E85FE36B897C898D899E89F3
S1130950B0D788232CF481E090E0988F8F8B3BC034
S113096020E03FEF4FE757E46B897C898D899E89AE
S1130970ADD818163CF520E030E040E251E46F8534
S1130980788989899A89A6D8DC01CB01BC01CD017B
S1130990FCD7DC01CB01988F8F8B0FC089E190E0ED
S11309A09A8F898F898D9A8D0197F1F79A8F898F04
S11309B08F89988D0197988F8F8B8F89988D009749
S11309C069F713C06B897C898D899E89DED7DC0128
S11309D0CB01988F8F8B8F89988D9C8F8B8F8B8D6C
S11309E09C8D0197F1F79C8F8B8F63E080E0A5DDF0
S11309F080E090E0AAEFB4E48D8F9E8FAF8FB8A310
S1130A0020E030E04AE753E46D8D7E8D8F8D98A110
S1130A1061D8DC01CB0189A39AA3ABA3BCA320E0DA
S1130A2030E040E85FE369A17AA18BA19CA141D7A2
S1130A3088232CF481E090E09EA38DA33BC020E0AA
S1130A403FEF4FE757E469A17AA18BA19CA13ED85F
S1130A5018163CF520E030E040E251E46D8D7E8DC7
S1130A608F8D98A137D8DC01CB01BC01CD018DD786
S1130A70DC01CB019EA38DA30FC089E190E098A770
S1130A808FA38FA198A50197F1F798A78FA38DA1A4
S1130A909EA101979EA38DA38DA19EA1009769F7A6
S1130AA013C069A17AA18BA19CA16FD7DC01CB01F2
S1130AB09EA38DA38DA19EA19AA789A789A59AA576
S1130AC00197F1F79AA789A7FCD3FECFCF93DF93C1
S1130AD0CDB7DEB78EE990E0FC0180818170882378
S1130AE021F084E080939F0003C081E080939F0005
S1130AF0DF91CF910895CF93DF93CDB7DEB72E97D3
S1130B000FB6F894DEBF0FBECDBFE3D59093A1001E
S1130B108093A000AAD662E081E00FDD80E090E03F
S1130B20AAE7B4E489839A83AB83BC8320E030E0F2
S1130B304AE753E469817A818B819C81CBD7DC01BC
S1130B40CB018D839E83AF83B88720E030E040E8FB
S1130B505FE36D817E818F819885ABD688232CF4E9
S1130B6081E090E09A8789873BC020E03FEF4FE720
S1130B7057E46D817E818F819885A8D718163CF53E
S1130B8020E030E040E251E469817A818B819C81EC
S1130B90A1D7DC01CB01BC01CD01F7D6DC01CB012F
S1130BA09A8789870FC089E190E09C878B878B8522
S1130BB09C850197F1F79C878B8789859A85019796
S1130BC09A87898789859A85009769F713C06D810B
S1130BD07E818F819885D9D6DC01CB019A8789875C
S1130BE089859A859E878D878D859E850197F1F7E6
S1130BF09E878D8762E080E0A0DC82E080939F0086
S1130C002E960FB6F894DEBF0FBECDBFDF91CF9105
S1130C100895CF93DF93CDB7DEB762970FB6F894FC
S1130C20DEBF0FBECDBF1A8219821C821B8212D670
S1130C309A8389834ED59C838B838091A000909165
S1130C40A1002B813C812817390730F089819A81D2
S1130C508230910508F482C01A82198280E090E8FB
S1130C60ABE3B5E48D839E83AF83B88720E030E0A7
S1130C704AE753E46D817E818F8198852BD7DC010F
S1130C80CB0189879A87AB87BC8720E030E040E8B6
S1130C905FE369857A858B859C850BD688232CF444
S1130CA081E090E09E878D873BC020E03FEF4FE7D7
S1130CB057E469857A858B859C8508D718163CF599
S1130CC020E030E040E251E46D817E818F8198859F
S1130CD001D7DC01CB01BC01CD0157D6DC01CB012E
S1130CE09E878D870FC089E190E0988B8F878F85D1
S1130CF098890197F1F7988B8F878D859E85019749
S1130D009E878D878D859E85009769F713C06985B9
S1130D107A858B859C8539D6DC01CB019E878D87AE
S1130D208D859E859A8B898B89899A890197F1F79C
S1130D309A8B898B8FD59A83898380916000909157
S1130D40610029813A818217930720F483E080931C
S1130D509F0007C082E080939F0003C082E08093DD
S1130D609F0062960FB6F894DEBF0FBECDBFDF9131
S1130D70CF910895CF93DF93CDB7DEB7A0970FB689
S1130D80F894DEBF0FBECDBF1A8219821C821B826B
S1130D908EE990E0FC0180818270882359F48EE909
S1130DA090E0FC0120812260FC01208361E070E07E
S1130DB083E03EDC63E081E0C0DB80E090E0AAE712
S1130DC0B4E48D839E83AF83B88720E030E04AE7A4
S1130DD053E46D817E818F8198857CD6DC01CB01C3
S1130DE089879A87AB87BC8720E030E040E85FE3DF
S1130DF069857A858B859C855CD588232CF481E074
S1130E0090E09E878D873BC020E03FEF4FE757E49B
S1130E1069857A858B859C8559D618163CF520E022
S1130E2030E040E251E46D817E818F81988552D615
S1130E30DC01CB01BC01CD01A8D5DC01CB019E872F
S1130E408D870FC089E190E0988B8F878F85988973
S1130E500197F1F7988B8F878D859E8501979E87E3
S1130E608D878D859E85009769F713C069857A857E
S1130E708B859C858AD5DC01CB019E878D878D85EA
S1130E809E859A8B898B89899A890197F1F79A8B28
S1130E90898B63E080E051DBE8D41BD49C838B8393
S1130EA080E090E8ABE3B5E48B8B9C8BAD8BBE8B81
S1130EB020E030E04AE753E46B897C898D899E8980
S1130EC009D6DC01CB018F8B988FA98FBA8F20E0D4
S1130ED030E040E85FE36F89788D898D9A8DE9D49D
S1130EE088232CF481E090E09C8F8B8F3BC020E022
S1130EF03FEF4FE757E46F89788D898D9A8DE6D55A
S1130F0018163CF520E030E040E251E46B897C891E
S1130F108D899E89DFD5DC01CB01BC01CD0135D59E
S1130F20DC01CB019C8F8B8F0FC089E190E09E8FF9
S1130F308D8F8D8D9E8D0197F1F79E8F8D8F8B8D6B
S1130F409C8D01979C8F8B8F8B8D9C8D009769F75F
S1130F5013C06F89788D898D9A8D17D5DC01CB01EB
S1130F609C8F8B8F8B8D9C8D98A38F8F8F8D98A149
S1130F700197F1F798A38F8FACD39C838B836AD4AA
S1130F809A838983809160009091610029813A81DC
S1130F902817390748F48091A0009091A1002B8173
S1130FA03C812817390720F483E080939F000FC009
S1130FB061E070E086E13CDB8EE990E0FC01208199
S1130FC02D7FFC01208351D482E080939F00A09662
S1130FD00FB6F894DEBF0FBECDBFDF91CF91089559
S1130FE0CF93DF93CDB7DEB7AE970FB6F894DEBFDD
S1130FF00FBECDBF1A8219821C821B8261E081E080
S11310009CDA80E090E0AAEFB4E48D839E83AF8302
S1131010B88720E030E04AE753E46D817E818F8118
S1131020988558D5DC01CB0189879A87AB87BC8723
S113103020E030E040E85FE369857A858B859C8514
S113104038D488232CF481E090E09E878D873BC0C0
S113105020E03FEF4FE757E469857A858B859C85CF
S113106035D518163CF520E030E040E251E46D81BE
S11310707E818F8198852ED5DC01CB01BC01CD0109
S113108084D4DC01CB019E878D870FC089E190E079
S1131090988B8F878F8598890197F1F7988B8F8725
S11310A08D859E8501979E878D878D859E8500976A
S11310B069F713C069857A858B859C8566D4DC01C4
S11310C0CB019E878D878D859E859A8B898B898997
S11310D09A890197F1F79A8B898BC7D3BBD39A83EB
S11310E08983F7D29C838B8389819A81823091058D
S11310F008F46FC062E081E020DA80E090E0AAEFBB
S1131100B4E48B8B9C8BAD8BBE8B20E030E04AE744
S113111053E46B897C898D899E89DCD4DC01CB0105
S11311208F8B988FA98FBA8F20E030E040E85FE37F
S11311306F89788D898D9A8DBCD388232CF481E0B6
S113114090E09C8F8B8F3BC020E03FEF4FE757E44C
S11311506F89788D898D9A8DB9D418163CF520E065
S113116030E040E251E46B897C898D899E89B2D458
S1131170DC01CB01BC01CD0108D4DC01CB019C8F87
S11311808B8F0FC089E190E09E8F8D8F8D8D9E8D0A
S11311900197F1F79E8F8D8F8B8D9C8D01979C8F7E
S11311A08B8F8B8D9C8D009769F713C06F89788D19
S11311B0898D9A8DEAD3DC01CB019C8F8B8F8B8D2B
S11311C09C8D98A38F8F8F8D98A10197F1F798A389
S11311D08F8F63E081E0B1D980E090E0AAEFB4E4BE
S11311E089A39AA3ABA3BCA320E030E04AE753E46D
S11311F069A17AA18BA19CA16DD4DC01CB018DA343
S11312009EA3AFA3B8A720E030E040E85FE36DA160
S11312107EA18FA198A54DD388232CF481E090E082
S11312209AA789A73BC020E03FEF4FE757E46DA1A1
S11312307EA18FA198A54AD418163CF520E030E091
S113124040E251E469A17AA18BA19CA143D4DC01C1
S1131250CB01BC01CD0199D3DC01CB019AA789A7AD
S11312600FC089E190E09CA78BA78BA59CA5019753
S1131270F1F79CA78BA789A59AA501979AA789A797
S113128089A59AA5009769F713C06DA17EA18FA1C6
S113129098A57BD3DC01CB019AA789A789A59AA538
S11312A09EA78DA78DA59EA50197F1F79EA78DA753
S11312B0AE960FB6F894DEBF0FBECDBFDF91CF91CF
S11312C00895CF93DF93CDB7DEB780919F00882F29
S11312D090E082309105A1F08330910534F40097B9
S11312E059F08130910551F011C08330910551F0CE
S11312F08430910549F00AC0E9DB08C0FCDB06C074
S113130088DC04C037DD02C06BDE0000DF91CF91C2
S113131008951F920F9200905F000F9211248F93F3
S11313209F93CF93DF93CDB7DEB78091A5009091C3
S1131330A60001969093A6008093A500DF91CF911B
S11313409F918F910F9000925F000F901F901895BE
S11313501F920F9200905F000F9211242F933F93DE
S11313604F935F936F937F938F939F93AF93BF93A9
S1131370EF93FF93CF93DF93CDB7DEB78091A200B5
S11313808823F1F061E081E0D8D854D28CE490E075
S1131390FC01808191819093A4008093A3008CE44C
S11313A090E0FC01118210821092A20085E590E089
S11313B025E530E0F90120812460FC01208310C080
S11313C062E081E0BAD826D281E08093A20085E56C
S11313D090E025E530E0F90120812B7FFC0120839A
S11313E0DF91CF91FF91EF91BF91AF919F918F9139
S11313F07F916F915F914F913F912F910F90009248
S11314005F000F901F901895CF93DF93CDB7DEB791
S1131410A0970FB6F894DEBF0FBECDBF82E390E075
S113142022E330E0F90120812061FC01208380E087
S113143090E0A0E2B1E489839A83AB83BC832BEA76
S11314403AEA4AEA5EE369817A818B819C8142D3DC
S1131450DC01CB018D839E83AF83B88720E030E02D
S113146040E85EE369817A818B819C8133D3DC011E
S1131470CB0189879A87AB87BC8720E030E040E8BE
S11314805FE36D817E818F81988513D288231CF45C
S113149081E08D87A7C020E03FEF4FE757E46985DF
S11314A07A858B859C8512D318160CF074C020E0C5
S11314B030E04AE754E469817A818B819C81FDD1D3
S11314C0DC01CB018E879F87A88BB98B20E030E0AD
S11314D04AE753E46E857F8588899989FBD2DC01CC
S11314E0CB018A8B9B8BAC8BBD8B20E030E040E83A
S11314F05FE36A897B898C899D89DBD188232CF4FD
S113150081E090E09F8B8E8B3BC020E03FEF4FE764
S113151057E46A897B898C899D89D8D218163CF551
S113152020E030E040E251E46E857F858889998926
S1131530D1D2DC01CB01BC01CD0127D2DC01CB012E
S11315409F8B8E8B0FC089E190E0998F888F888D57
S1131550998D0197F1F7998F888F8E899F890197CB
S11315609F8B8E8B8E899F89009769F73BC06A8910
S11315707B898C899D8909D2DC01CB019F8B8E8B61
S11315808E899F899B8F8A8F8A8D9B8D0197F1F716
S11315909B8F8A8F27C020E030E04FE753E46D81B2
S11315A07E818F81988592D21816A4F469857A85F4
S11315B08B859C85EAD1DC01CB019D8F8C8F8C8D32
S11315C09D8D9F8F8E8F8E8D9F8D0197F1F79F8FAD
S11315D08E8F0EC06D817E818F819885D6D1DC017E
S11315E0CB018D878D8588A388A18A95F1F788A37F
S11315F082E390E022E330E0F90120812F7EFC01B8
S11316002083A0960FB6F894DEBF0FBECDBFDF9146
S1131610CF910895CF93DF93CDB7DEB781E390E008
S113162021E330E0F90120812B7FFC01208382E358
S113163090E022E330E0F90120812460FC01208362
S113164085E590E025E530E0F90120812360FC0187
S113165020838BE590E02BE530E0F90120812064C4
S1131660FC012083DF91CF910895CF93DF93CDB711
S1131670DEB781E390E021E330E0F90120812061CD
S1131680FC01208382E390E022E330E0F901208131
S11316902F7EFC01208382E390E022E330E0F90115
S11316A020812860FC01208385E590E025E530E079
S11316B0F90120812C60FC0120838BE590E02BE56F
S11316C030E0F90120812068FC012083DF91CF9173
S11316D00895CF93DF93CDB7DEB72E970FB6F89466
S11316E0DEBF0FBECDBF90DE80E090E0AAE7B4E499
S11316F089839A83AB83BC8320E030E04AE753E4D8
S113170069817A818B819C81E5D1DC01CB018D8358
S11317109E83AF83B88720E030E040E85FE36D81CB
S11317207E818F819885C5D088232CF481E090E058
S11317309A8789873BC020E03FEF4FE757E46D81EC
S11317407E818F819885C2D118163CF520E030E067
S113175040E251E469817A818B819C81BBD1DC01B7
S1131760CB01BC01CD0111D1DC01CB019A87898762
S11317700FC089E190E09C878B878B859C850197BE
S1131780F1F79C878B8789859A8501979A87898742
S113179089859A85009769F713C06D817E818F8151
S11317A09885F3D0DC01CB019A87898789859A854E
S11317B09E878D878D859E850197F1F79E878D87FE
S11317C08DE690E0C9D48BE790E0C6D48091A30065
S11317D09091A400E2D48DE090E0A4D48AE090E05B
S11317E0A1D48091A3009091A4002E960FB6F894F2
S11317F0DEBF0FBECDBFDF91CF910895CF93DF93AE
S1131800CDB7DEB78CE490E0FC0111821082DF9149
S1131810CF910895CF93DF93CDB7DEB78EE490E0F8
S11318202EE430E0F90120812160FC012083DF9166
S1131830CF910895CF93DF93CDB7DEB78EE490E0D8
S11318402EE430E0F90120812E7FFC012083DF911A
S1131850CF910895CF93DF93CDB7DEB78091A500E4
S11318609091A600DF91CF910895CF93DF93CDB7E8
S1131870DEB71092A6001092A500DF91CF910895D3
S1131880CF93DF93CDB7DEB787E390E027E330E073
S1131890F90120812160FC01208388E390E028E3A2
S11318A030E0F90120812E7FFC012083DF91CF916C
S11318B0089597D008F481E008950CD0CDC0C5D028
S11318C040F0BCD030F021F45F3F19F0AEC05111AC
S11318D0F7C0B1C0D2D098F39923C9F35523B1F31B
S11318E0951B550BBB27AA2762177307840738F08B
S11318F09F5F5F4F220F331F441FAA1FA9F333D0EA
S11319000E2E3AF0E0E830D091505040E695001C9D
S1131910CAF729D0FE2F27D0660F771F881FBB1F59
S1131920261737074807AB07B0E809F0BB0B802D33
S1131930BF01FF2793585F4F2AF09E3F510568F07F
S113194074C0BEC05F3FECF3983EDCF38695779598
S11319506795B795F7959F5FC9F7880F911D969581
S1131960879597F90895E1E0660F771F881FBB1FDD
S1131970621773078407BA0720F0621B730B840B8A
S1131980BA0BEE1F88F7E09508957FD088F09F5733
S113199090F0B92F9927B751A0F0D1F0660F771FB7
S11319A0881F991F1AF0BA95C9F712C0B13081F097
S11319B086D0B1E0089583C0672F782F8827B85F59
S11319C039F0B93FCCF3869577956795B395D9F7F8
S11319D03EF490958095709561957F4F8F4F9F4F02
S11319E00895990F0008550FAA0BE0E8FEEF1616AC
S11319F01706E807F907C0F012161306E407F507FF
S1131A0098F0621B730B840B950B39F40A2661F072
S1131A10232B242B252B21F408950A2609F4A14015
S1131A20A6958FEF811D811D089597F99F6780E822
S1131A3070E060E008959FEF80EC089500240A941C
S1131A401616170618060906089500240A94121695
S1131A501306140605060895092E0394000C11F4C8
S1131A60882352F0BB0F40F4BF2B11F460FF04C075
S1131A706F5F7F4F8F4F9F4F089557FD9058440FCE
S1131A80551F59F05F3F71F04795880F97FB991FD9
S1131A9061F09F3F79F08795089512161306140696
S1131AA0551FF2CF4695F1DF08C016161706180623
S1131AB0991FF1CF86957105610508940895E894FE
S1131AC0BB2766277727CB0197F908958ADF08F4A7
S1131AD08FEF08950BD0C0CFB1DF28F0B6DF18F038
S1131AE0952309F0A2CFA7CF1124EACFC6DFA0F334
S1131AF0959FD1F3950F50E0551F629FF001729F9F
S1131B00BB27F00DB11D639FAA27F00DB11DAA1FBD
S1131B10649F6627B00DA11D661F829F2227B00D0A
S1131B20A11D621F739FB00DA11D621F839FA00D95
S1131B30611D221F749F3327A00D611D231F849FE5
S1131B40600D211D822F762F6A2F11249F5750403C
S1131B508AF0E1F088234AF0EE0FFF1FBB1F661FD7
S1131B60771F881F91505040A9F79E3F510570F090
S1131B705CCFA6CF5F3FECF3983EDCF38695779578
S1131B806795B795F795E7959F5FC1F7FE2B880F8B
S1131B90911D9695879597F90895A29FB001B39FDB
S1131BA0C001A39F01D0B29F700D811D1124911D0E
S1091BB00895F894FFCF34
S1131BB6040053657269616C204F4B2100555353E1
S1131BC620547269676765726564005553532063D0
S1131BD66F756E743A004D6F74696F6E206163742D
S1111BE6697665004E6F204D6F74696F6E0056
S9030000FC
