S00D00004D6F7461732E7372656313
S113000012C0F0C7D0C72AC029C028C027C026C044
S113001060C77EC723C033C021C020C01FC01EC01C
S11300201DC01CC01BC011241FBECFE5D4E0DEBF21
S1130030CDBF10E0A0E6B0E0E8E0F8E102C0059032
S11300400D92A236B107D9F720E0A2E6B0E001C0D4
S11300501D92A538B207E1F73CD3D4CBD1CFCF93CF
S1130060DF93CDB7DEB73FD06DD941D9CCD9B2D962
S113007015DADED036D87894DF91CF9108951F92A7
S11300800F9200905F000F9211242F933F934F9390
S11300905F936F937F938F939F93AF93BF93EF93EC
S11300A0FF93CF93DF931F92CDB7DEB78CE290E03E
S11300B0FC01808150D089838FEF89830F90DF9179
S11300C0CF91FF91EF91BF91AF919F918F917F91CC
S11300D06F915F914F913F912F910F9000925F002C
S11300E00F901F901895CF93DF93CDB7DEB789E2B9
S11300F090E02CE0FC01208380E490E0FC0110827D
S11301008BE290E02BE230E0F90120812260FC01D7
S113011020838AE290E028E9FC012083DF91CF91DB
S11301200895CF93DF931F92CDB7DEB78983000084
S11301308BE290E0FC018081882F90E08072992707
S11301400097B1F38CE290E02981FC0120830F90A9
S1130150DF91CF910895CF93DF9300D000D0CDB736
S1130160DEB78A8380916F00882F90E001962CE09F
S113017030E0B90120DB8983809170009981981760
S113018079F080916F00882F90E08F589F4F2A81DB
S1130190FC012083898180936F0080E090E002C09D
S11301A08FEF9FEF0F900F900F900F90DF91CF91F3
S11301B00895CF93DF9300D000D0CDB7DEB79091F0
S11301C06F00809170009817D1F080917000882F93
S11301D090E08F589F4FFC018081882F90E09A8394
S11301E0898380917000882F90E001962CE030E0A4
S11301F0B901E1DA8093700089819A8102C08FEF9E
S11302009FEF0F900F900F900F90DF91CF91089573
S1130210CF93DF93CDB7DEB790916F0080917000DC
S1130220981711F480E001C081E0DF91CF91089527
S1130230CF93DF93CDB7DEB784E390E024E330E0DF
S1130240F90120812160FC01208384E390E024E310
S113025030E0F90120812260FC01208385E390E0F5
S113026025E330E0F90120812E7FFC01208385E322
S113027090E025E330E0F90120812D7FFC0120830B
S1130280DF91CF910895CF93DF9300D0CDB7DEB740
S113029089836A8389818130A9F58A81882F90E0D6
S11302A08230910539F083309105C1F08130910598
S11302B059F05FC085E390E025E330E0F901208147
S11302C02160FC0120831DC085E390E025E330E03C
S11302D0F90120812260FC01208313C085E390E0B2
S11302E025E330E0F90120812160FC01208385E3CE
S11302F090E025E330E0F90120812260FC012083B5
S1130300000037C089818823A1F58A81882F90E075
S11303108230910539F083309105C1F08130910527
S113032059F027C085E390E025E330E0F90120810E
S11303302E7FFC0120831DC085E390E025E330E09F
S1130340F90120812D7FFC01208313C085E390E017
S113035025E330E0F90120812E7FFC01208385E331
S113036090E025E330E0F90120812D7FFC0120831A
S113037000000F900F90DF91CF910895CF93DF93FA
S1130380CDB7DEB763970FB6F894DEBF0FBECDBF0F
S1130390898B7B8B6A8B86E089831A828EE78093B4
S11303A07D008FEF80937E00898180937F0089890F
S11303B080938000109281008A899B89892F9927D4
S11303C0809382008A89809383008FEE80938400D7
S11303D08DE790E090D080E090E0A0E2B1E48B83E0
S11303E09C83AD83BE8320E030E04AE753E46B8115
S11303F07C818D819E817CD9DC01CB018F839887A0
S1130400A987BA8720E030E040E85FE36F81788510
S113041089859A855CD888232CF481E090E09C87B8
S11304208B873BC020E03FEF4FE757E46F8178852F
S113043089859A8559D918163CF520E030E040E2C8
S113044051E46B817C818D819E8152D9DC01CB0189
S1130450BC01CD01A8D8DC01CB019C878B870FC0E0
S113046089E190E09E878D878D859E850197F1F7C0
S11304709E878D878B859C8501979C878B878B8531
S11304809C85009769F713C06F81788589859A8563
S11304908AD8DC01CB019C878B878B859C85988BC4
S11304A08F878F8598890197F1F7988B8F87B0DEB6
S11304B081309105B9F47DDE8A838A818E37D9F73C
S11304C078DE80937E0075DE80937F0072DE8093F9
S11304D080006FDE809381006CDE8093820069DE91
S11304E08093830063960FB6F894DEBF0FBECDBF32
S11304F0DF91CF910895CF93DF9300D0CDB7DEB7CE
S11305009A83898389819A81FC0180810ADE8981A9
S11305109A81FC01818105DE89819A81FC018281B5
S113052000DE89819A81FC018381FBDD89819A81C6
S1130530FC018481F6DD89819A81FC018581F1DDEC
S113054089819A81FC018681ECDD89819A81FC0193
S11305508781E7DD0F900F90DF91CF910895CF93BE
S1130560DF93CDB7DEB72F970FB6F894DEBF0FBE7B
S1130570CDBF19828EE780937D008FEF80937E003C
S113058086E080937F0088E480938000109281004D
S113059010928200109283008FEE809384008DE786
S11305A090E0A9DF80E090E0A0E2B1E48A839B833D
S11305B0AC83BD8320E030E04AE753E46A817B8169
S11305C08C819D8195D8DC01CB018E839F83A88784
S11305D0B98720E030E040E85FE36E817F81888561
S11305E0998575D788232CF481E090E09B878A87CE
S11305F03BC020E03FEF4FE757E46E817F81888561
S1130600998572D818163CF520E030E040E251E4B8
S11306106A817B818C819D816BD8DC01CB01BC011B
S1130620CD01C1D7DC01CB019B878A870FC089E14B
S113063090E09D878C878C859D850197F1F79D8738
S11306408C878A859B8501979B878A878A859B856A
S1130650009769F713C06E817F8188859985A3D738
S1130660DC01CB019B878A878A859B859F878E8740
S11306708E859F850197F1F79F878E87C9DD81302D
S11306809105B9F496DD898389818E37D9F791DD97
S113069080937E008EDD80937F008BDD80938000CD
S11306A088DD8093810085DD8093820082DD8093E4
S11306B0830080918000803411F481E001C080E0E7
S11306C02F960FB6F894DEBF0FBECDBFDF91CF914A
S11306D00895CF93DF93CDB7DEB7C1DCD2D3FECF7D
S11306E0CF93DF93CDB7DEB7109262008FEF9FEF09
S11306F0909365008093640032DF882341F082E6A2
S113070090E0FC0120812160FC01208307C082E687
S113071090E0FC0120812E7FFC01208382E690E0A2
S1130720FC0180818170882321F084E08093630040
S113073003C081E080936300DF91CF910895CF934C
S1130740DF93CDB7DEB72E970FB6F894DEBF0FBE9A
S1130750CDBF80E090E4ACE9B5E489839A83AB83B0
S1130760BC8320E030E04AE753E469817A818B81DD
S11307709C81BED7DC01CB018D839E83AF83B88778
S113078020E030E040E85FE36D817E818F819885D1
S11307909ED688232CF481E090E09A8789873BC019
S11307A020E03FEF4FE757E46D817E818F8198858C
S11307B09BD718163CF520E030E040E251E4698113
S11307C07A818B819C8194D7DC01CB01BC01CD0162
S11307D0EAD6DC01CB019A8789870FC089E190E0D2
S11307E09C878B878B859C850197F1F79C878B87EA
S11307F089859A8501979A87898789859A8500973B
S113080069F713C06D817E818F819885CCD6DC0118
S1130810CB019A87898789859A859E878D878D855F
S11308209E850197F1F79E878D87C9D590936500C2
S1130830809364008091640090916500885C9109C4
S113084090936500809364001ED682E080936300D9
S11308502E960FB6F894DEBF0FBECDBFDF91CF91B9
S11308600895CF93DF93CDB7DEB762970FB6F894B0
S1130870DEBF0FBECDBF1A8219821C821B82F8D53F
S11308809A8389839CD59C838B8361E081E0FBDC24
S113089082E690E0FC0180818470882331F48981B0
S11308A09A818230910508F48CC062E080E0EBDC30
S11308B082E690E0FC0120812B7FFC0120831A82D8
S11308C0198280E090E8ABE3B5E48D839E83AF8327
S11308D0B88720E030E04AE753E46D817E818F8160
S11308E0988506D7DC01CB0189879A87AB87BC87BB
S11308F020E030E040E85FE369857A858B859C855C
S1130900E6D588232CF481E090E09E878D873BC058
S113091020E03FEF4FE757E469857A858B859C8516
S1130920E3D618163CF520E030E040E251E46D8156
S11309307E818F819885DCD6DC01CB01BC01CD01A1
S113094032D6DC01CB019E878D870FC089E190E010
S1130950988B8F878F8598890197F1F7988B8F876C
S11309608D859E8501979E878D878D859E850097B1
S113097069F713C069857A858B859C8514D6DC015B
S1130980CB019E878D878D859E859A8B898B8989DE
S11309909A890197F1F79A8B898B6AD59A8389830F
S11309A0809160009091610029813A8182179307B8
S11309B020F483E08093630007C082E080936300A7
S11309C003C082E08093630062960FB6F894DEBFA2
S11309D00FBECDBFDF91CF910895CF93DF93CDB7F5
S11309E0DEB762970FB6F894DEBF0FBECDBF1A8292
S11309F019821C821B8282E690E0FC0120812B7FFD
S1130A00FC01208382E690E0FC01808182708823CF
S1130A1059F482E690E0FC0120812260FC012083ED
S1130A2061E070E083E0AADC61E080E02CDC2BD59F
S1130A3080E090E4ACE9B5E48D839E83AF83B8870E
S1130A4020E030E04AE753E46D817E818F81988510
S1130A504FD6DC01CB0189879A87AB87BC8720E01E
S1130A6030E040E85FE369857A858B859C852FD5E6
S1130A7088232CF481E090E09E878D873BC020E0A2
S1130A803FEF4FE757E469857A858B859C852CD6A3
S1130A9018163CF520E030E040E251E46D817E819F
S1130AA08F81988525D6DC01CB01BC01CD017BD596
S1130AB0DC01CB019E878D870FC089E190E0988B84
S1130AC08F878F8598890197F1F7988B8F878D850C
S1130AD09E8501979E878D878D859E85009769F7F2
S1130AE013C069857A858B859C855DD5DC01CB0136
S1130AF09E878D878D859E859A8B898B89899A8916
S1130B000197F1F79A8B898BB3D49A838983809167
S1130B1060009091610029813A812817390758F0C3
S1130B2082E690E0FC0180818470882321F483E0D4
S1130B30809363002CC082E690E0FC018081847085
S1130B40882311F162E080E09EDB82E690E0FC0104
S1130B5020812B7FFC01208361E070E08EE00EDCBD
S1130B6061E070E08EE00ADC61E070E08EE006DCBB
S1130B7082E690E0FC0120812D7FFC01208383D458
S1130B8082E08093630003C083E0809363006296F5
S1130B900FB6F894DEBF0FBECDBFDF91CF9108959D
S1130BA0CF93DF93CDB7DEB7AE970FB6F894DEBF21
S1130BB00FBECDBF1A8219821C821B8261E081E0C4
S1130BC062DB80E090E0AAEFB4E48D839E83AF8380
S1130BD0B88720E030E04AE753E46D817E818F815D
S1130BE0988586D5DC01CB0189879A87AB87BC873A
S1130BF020E030E040E85FE369857A858B859C8559
S1130C0066D488232CF481E090E09E878D873BC0D6
S1130C1020E03FEF4FE757E469857A858B859C8513
S1130C2063D518163CF520E030E040E251E46D81D4
S1130C307E818F8198855CD5DC01CB01BC01CD011F
S1130C40B2D4DC01CB019E878D870FC089E190E08F
S1130C50988B8F878F8598890197F1F7988B8F8769
S1130C608D859E8501979E878D878D859E850097AE
S1130C7069F713C069857A858B859C8594D4DC01DA
S1130C80CB019E878D878D859E859A8B898B8989DB
S1130C909A890197F1F79A8B898BF5D3E9D39A83D3
S1130CA089838DD39C838B8389819A81823091053A
S1130CB008F46FC062E081E0E6DA80E090E0AAEF39
S1130CC0B4E48B8B9C8BAD8BBE8B20E030E04AE789
S1130CD053E46B897C898D899E890AD5DC01CB011B
S1130CE08F8B988FA98FBA8F20E030E040E85FE3C4
S1130CF06F89788D898D9A8DEAD388232CF481E0CD
S1130D0090E09C8F8B8F3BC020E03FEF4FE757E490
S1130D106F89788D898D9A8DE7D418163CF520E07B
S1130D2030E040E251E46B897C898D899E89E0D46E
S1130D30DC01CB01BC01CD0136D4DC01CB019C8F9D
S1130D408B8F0FC089E190E09E8F8D8F8D8D9E8D4E
S1130D500197F1F79E8F8D8F8B8D9C8D01979C8FC2
S1130D608B8F8B8D9C8D009769F713C06F89788D5D
S1130D70898D9A8D18D4DC01CB019C8F8B8F8B8D40
S1130D809C8D98A38F8F8F8D98A10197F1F798A3CD
S1130D908F8F63E081E077DA80E090E0AAEFB4E43B
S1130DA089A39AA3ABA3BCA320E030E04AE753E4B1
S1130DB069A17AA18BA19CA19BD4DC01CB018DA359
S1130DC09EA3AFA3B8A720E030E040E85FE36DA1A5
S1130DD07EA18FA198A57BD388232CF481E090E099
S1130DE09AA789A73BC020E03FEF4FE757E46DA1E6
S1130DF07EA18FA198A578D418163CF520E030E0A8
S1130E0040E251E469A17AA18BA19CA171D4DC01D7
S1130E10CB01BC01CD01C7D3DC01CB019AA789A7C3
S1130E200FC089E190E09CA78BA78BA59CA5019797
S1130E30F1F79CA78BA789A59AA501979AA789A7DB
S1130E4089A59AA5009769F713C06DA17EA18FA10A
S1130E5098A5A9D3DC01CB019AA789A789A59AA54E
S1130E609EA78DA78DA59EA50197F1F79EA78DA797
S1130E70AE960FB6F894DEBF0FBECDBFDF91CF9113
S1130E800895CF93DF93CDB7DEB780916300882FA9
S1130E9090E082309105A1F08330910534F40097FD
S1130EA059F08130910551F011C08330910551F012
S1130EB08430910549F00AC013DC08C040DC06C048
S1130EC0D0DC04C08ADD02C06BDE0000DF91CF916C
S1130ED008951F920F9200905F000F9211248F9338
S1130EE09F93CF93DF93CDB7DEB780916A00909143
S1130EF06B00019690936B0080936A00DF91CF9111
S1130F009F918F910F9000925F000F901F90189502
S1130F101F920F9200905F000F9211242F933F9322
S1130F204F935F936F937F938F939F93AF93BF93ED
S1130F30EF93FF93CF93DF93CDB7DEB780916C002F
S1130F4090916D009C012F5F3F4F30936D00209373
S1130F506C00843F21E0920791F4C3D010926D009D
S1130F6010926C0083E590E023E530E0F9012081E4
S1130F702E7FFC01208382E590E0FC011082DF914A
S1130F80CF91FF91EF91BF91AF919F918F917F91FD
S1130F906F915F914F913F912F910F9000925F005D
S1130FA00F901F9018951F920F9200905F000F9260
S1130FB011248F939F93CF93DF93CDB7DEB78091A6
S1130FC06600909167000196909367008093660095
S1130FD0DF91CF919F918F910F9000925F000F90BE
S1130FE01F9018951F920F9200905F000F9211248A
S1130FF02F933F934F935F936F937F938F939F931D
S1131000AF93BF93EF93FF93CF93DF93CDB7DEB747
S113101080916E008823D9F11BD28CE490E0FC010E
S113102080819181909369008093680010926B0095
S113103010926A008CE490E0FC01118210821092FC
S11310406E0085E590E025E530E0F901208123601C
S1131050FC01208383E590E023E530E0F901208161
S11310602160FC0120832091680030916900809107
S113107064009091650028173907F8F462E081E074
S113108002D98091620084608093620016C0D0D13E
S113109081E080936E0085E590E025E530E0F9017C
S11310A020812E7FFC01208385E590E025E530E05A
S11310B0F90120812260FC012083DF91CF91FF910F
S11310C0EF91BF91AF919F918F917F916F915F91BC
S11310D04F913F912F910F9000925F000F901F90BE
S11310E01895CF93DF93CDB7DEB7A0970FB6F894DA
S11310F0DEBF0FBECDBF88E390E028E330E0F90106
S113110020812260FC01208380E090E0A0E2B1E431
S113111089839A83AB83BC832BEA3AEA4AEA5EE387
S113112069817A818B819C81E3D2DC01CB018D833F
S11311309E83AF83B88720E030E040E85EE36981B6
S11311407A818B819C81D4D2DC01CB0189879A87F7
S1131150AB87BC8720E030E040E85FE36D817E81AF
S11311608F819885B4D188231CF481E08D87A7C032
S113117020E03FEF4FE757E469857A858B859C85AE
S1131180B3D218160CF074C020E030E04AE754E4FF
S113119069817A818B819C819ED1DC01CB018E8710
S11311A09F87A88BB98B20E030E04AE753E46E8533
S11311B07F85888999899CD2DC01CB018A8B9B8BA2
S11311C0AC8BBD8B20E030E040E85FE36A897B892B
S11311D08C899D897CD188232CF481E090E09F8BBD
S11311E08E8B3BC020E03FEF4FE757E46A897B8951
S11311F08C899D8979D218163CF520E030E040E2D4
S113120051E46E857F858889998972D2DC01CB018E
S1131210BC01CD01C8D1DC01CB019F8B8E8B0FC0EB
S113122089E190E0998F888F888D998D0197F1F7E6
S1131230998F888F8E899F8901979F8B8E8B8E893A
S11312409F89009769F73BC06A897B898C899D894E
S1131250AAD1DC01CB019F8B8E8B8E899F899B8FBA
S11312608A8F8A8D9B8D0197F1F79B8F8A8F27C078
S113127020E030E04FE753E46D817E818F819885D3
S113128033D21816A4F469857A858B859C858BD115
S1131290DC01CB019D8F8C8F8C8D9D8D9F8F8E8FCC
S11312A08E8D9F8D0197F1F79F8F8E8F0EC06D816C
S11312B07E818F81988577D1DC01CB018D878D85E7
S11312C088A388A18A95F1F788A388E390E028E3AE
S11312D030E0F90120812D7FFC012083A0960FB618
S11312E0F894DEBF0FBECDBFDF91CF910895CF93A9
S11312F0DF93CDB7DEB781E390E021E330E0F9017D
S11313002081277FFC01208382E390E022E330E008
S1131310F90120812860FC01208385E590E025E522
S113132030E0F90120812C60FC0120838BE590E002
S11313302BE530E0F90120812068FC012083DF9156
S1131340CF910895CF93DF93CDB7DEB787E390E0D5
S113135027E330E0F90120812260FC01208388E347
S113136090E028E330E0F90120812D7FFC01208307
S113137081E390E021E330E0F90120812B7FFC013F
S1131380208382E390E022E330E0F90120812460AD
S1131390FC01208385E590E025E530E0F90120811A
S11313A02360FC0120838BE590E02BE530E0F9011C
S11313B020812064FC012083DF91CF910895CF9395
S11313C0DF93CDB7DEB78091680090916900DF911B
S11313D0CF910895CF93DF93CDB7DEB789E590E041
S11313E029E530E0F90120812160FC01208383E5B7
S11313F090E023E530E0F90120812160FC012083A5
S1131400DF91CF910895CF93DF93CDB7DEB78CE40E
S113141090E0FC011182108289E590E029E530E03A
S1131420F90120812460FC012083DF91CF9108958C
S1131430CF93DF93CDB7DEB78EE490E02EE430E0B7
S1131440F90120812160FC012083DF91CF9108956F
S1131450CF93DF93CDB7DEB78EE490E02EE430E097
S1131460F90120812E7FFC012083DF91CF91089523
S1131470CF93DF93CDB7DEB780916600909167007C
S1131480DF91CF910895CF93DF93CDB7DEB710925C
S1131490670010926600DF91CF910895CF93DF9398
S11314A0CDB7DEB787E390E027E330E0F901208190
S11314B02160FC01208388E390E028E330E0F90117
S11314C020812E7FFC012083DF91CF91089597D056
S11314D008F481E008950CD0CDC0C5D040F0BCD054
S11314E030F021F45F3F19F0AEC05111F7C0B1C024
S11314F0D2D098F39923C9F35523B1F3951B550B17
S1131500BB27AA2762177307840738F09F5F5F4FD2
S1131510220F331F441FAA1FA9F333D00E2E3AF013
S1131520E0E830D091505040E695001CCAF729D02D
S1131530FE2F27D0660F771F881FBB1F261737077C
S11315404807AB07B0E809F0BB0B802DBF01FF27AC
S113155093585F4F2AF09E3F510568F074C0BEC097
S11315605F3FECF3983EDCF3869577956795B795E6
S1131570F7959F5FC9F7880F911D9695879597F901
S11315800895E1E0660F771F881FBB1F621773077A
S11315908407BA0720F0621B730B840BBA0BEE1F8F
S11315A088F7E09508957FD088F09F5790F0B92F81
S11315B09927B751A0F0D1F0660F771F881F991FA4
S11315C01AF0BA95C9F712C0B13081F086D0B1E0F3
S11315D0089583C0672F782F8827B85F39F0B93F03
S11315E0CCF3869577956795B395D9F73EF49095A6
S11315F08095709561957F4F8F4F9F4F0895990FF8
S11316000008550FAA0BE0E8FEEF16161706E807C8
S1131610F907C0F012161306E407F50798F0621BE9
S1131620730B840B950B39F40A2661F0232B242BBE
S1131630252B21F408950A2609F4A140A6958FEFDD
S1131640811D811D089597F99F6780E870E060E02F
S113165008959FEF80EC089500240A941616170647
S113166018060906089500240A941216130614068F
S113167005060895092E0394000C11F4882352F0F2
S1131680BB0F40F4BF2B11F460FF04C06F5F7F4FAA
S11316908F4F9F4F089557FD9058440F551F59F091
S11316A05F3F71F04795880F97FB991F61F09F3F4B
S11316B079F087950895121613061406551FF2CF74
S11316C04695F1DF08C0161617061806991FF1CFC4
S11316D086957105610508940895E894BB276627EB
S11316E07727CB0197F908958ADF08F48FEF0895DF
S11316F00BD0C0CFB1DF28F0B6DF18F0952309F086
S1131700A2CFA7CF1124EACFC6DFA0F3959FD1F3D0
S1131710950F50E0551F629FF001729FBB27F00D9B
S1131720B11D639FAA27F00DB11DAA1F649F6627F0
S1131730B00DA11D661F829F2227B00DA11D621F3F
S1131740739FB00DA11D621F839FA00D611D221FF9
S1131750749F3327A00D611D231F849F600D211DDD
S1131760822F762F6A2F11249F5750408AF0E1F080
S113177088234AF0EE0FFF1FBB1F661F771F881FC9
S113178091505040A9F79E3F510570F05CCFA6CF11
S11317905F3FECF3983EDCF3869577956795B795B4
S11317A0F795E7959F5FC1F7FE2B880F911D9695DE
S11317B0879597F9089597FB072E16F4009406D0A1
S11317C077FD08D00BD007FC05D03EF490958195A9
S11317D09F4F0895709561957F4F0895AA1BBB1B79
S11317E051E107C0AA1FBB1FA617B70710F0A61B1D
S11317F0B70B881F991F5A95A9F780959095BC013E
S10B1800CD010895F894FFCF17
S10518080100D9
S9030000FC
