S00D00004D6F7461732E7372656313
S113000012C061C841C82AC029C028C027C026C060
S113001025C024C023C034C021C020C01FC01EC0BE
S11300201DC01CC01BC011241FBECFE5D4E0DEBF21
S1130030CDBF10E0A0E6B0E0E4E5F9E102C0059030
S11300400D92A03CB107D9F721E0A0ECB0E001C0CB
S11300501D92A331B207E1F7DFD37ACCD1CFCF938E
S1130060DF93CDB7DEB740D082E690E075D0BBD940
S11300708FD98BDAD4DA36D27894DF91CF91089580
S11300801F920F9200905F000F9211242F933F93C1
S11300904F935F936F937F938F939F93AF93BF938C
S11300A0EF93FF93CF93DF931F92CDB7DEB78CE22C
S11300B090E0FC018081A7D189838FEF89830F9021
S11300C0DF91CF91FF91EF91BF91AF919F918F916C
S11300D07F916F915F914F913F912F910F9000927B
S11300E05F000F901F901895CF93DF93CDB7DEB7C5
S11300F089E290E02CE0FC01208380E490E0FC01A4
S113010010828BE290E02BE230E0F9012081226042
S1130110FC0120838AE290E028E9FC012083DF913E
S1130120CF910895CF93DF931F92CDB7DEB7898324
S113013000008BE290E0FC018081882F90E08072C7
S113014099270097B1F38CE290E02981FC01208388
S11301500F90DF91CF910895CF93DF9300D0CDB767
S1130160DEB79A8389830AC089819A81FC018081E0
S1130170D9DF89819A8101969A83898389819A81B9
S1130180FC018081882381F78DE0CCDF8AE0CADF1F
S11301900F900F90DF91CF910895CF93DF93CDB758
S11301A0DEB728970FB6F894DEBF0FBECDBF988791
S11301B08F831A8219828F8198859F709C838B8389
S11301C08F819885892F992782958F709E838D833F
S11301D08D819E81982F88279295907F29813A81DD
S11301E0820F931F9A8389838B819C819E838D8345
S11301F08B819C8199279C838B838D819E81892F00
S113020099279E838D838D819E81982F88272981AC
S11302103A81820F931F9A8389838B819C819E8369
S11302208D838B819C818F7099279C838B838D8197
S11302309E81929582958F7089279F7089279E83CE
S11302408D838D819E819C0122953295307F32274A
S1130250207F322789819A81280F391F8B819C81C5
S1130260820F931F9A83898389819A819C838B83CC
S113027089819A81929582958F7089279F708927A9
S11302809C01A7E4B3E058DB9695879596958795EE
S113029096958795806346DF4B815C81CA01929570
S11302A082958F7089279F7089279C01A7E4B3E00A
S11302B043DBBC017695679576956795769567954A
S11302C020E137E2629FC001639F900D729F900D01
S11302D011249A01281B390BC9019A8389838981C6
S11302E09A819695879596958795969587959C017D
S11302F0A5ECB0E221DB929582958F7089279F70DF
S1130300892780630FDF4B815C81CA0196958795AD
S113031096958795969587959C01A5ECB0E20CDBA4
S1130320BC01729562956F7067277F70672728EE0E
S113033033E0629FC001639F900D729F900D112462
S11303409A01281B390BC9019A83898389819A816F
S113035096958795969587959C01ABE7B4E1ECDA81
S1130360969587958063DEDE4B815C81CA01969504
S11303708795969587959C01ABE7B4E1DDDA9C01FE
S11303803695279564E6629FC001639F900D112402
S11303909A01281B390BC9019A83898389819A811F
S11303A09C01ADECBCECC8DA96958795969587953B
S11303B0969587958063B6DE4B815C819A01ADEC9E
S11303C0BCECBADA96958795969587959695879518
S11303D0880F991F9C01220F331F220F331F820F96
S11303E0931F9A01281B390BC9019A838983898138
S11303F0806398DE28960FB6F894DEBF0FBECDBF9B
S1130400DF91CF910895CF93DF9300D0CDB7DEB7BE
S11304108A838091C900882F90E001968F73907829
S1130420992324F40197806C9F6F019689838091AE
S1130430CA009981981779F08091C900882F90E0BB
S113044085539F4F2A81FC01208389818093C900B1
S113045080E090E002C08FEF9FEF0F900F90DF914C
S1130460CF910895CF93DF9300D0CDB7DEB79091AD
S1130470C9008091CA009817F1F08091CA00882FB2
S113048090E085539F4FFC018081882F90E09A83F0
S113049089838091CA00882F90E001968F739078A9
S11304A0992324F40197806C9F6F01968093CA006E
S11304B089819A8102C08FEF9FEF0F900F90DF9197
S11304C0CF910895CF93DF93CDB7DEB79091C90054
S11304D08091CA00981711F480E001C081E0DF9197
S11304E0CF910895CF93DF93CDB7DEB784E390E047
S11304F024E330E0F90120812160FC01208384E3BE
S113050090E024E330E0F90120812260FC012083A3
S113051085E390E025E330E0F90120812E7FFC01A2
S1130520208385E390E025E330E0F90120812D7FED
S1130530FC012083DF91CF910895CF93DF9300D006
S1130540CDB7DEB789836A8389818130A9F58A8131
S1130550882F90E08230910539F083309105C1F005
S11305608130910559F05FC085E390E025E330E0E8
S1130570F90120812160FC0120831DC085E390E006
S113058025E330E0F90120812260FC01208313C0BF
S113059085E390E025E330E0F90120812160FC014E
S11305A0208385E390E025E330E0F9012081226097
S11305B0FC012083000037C089818823A1F58A814A
S11305C0882F90E08230910539F083309105C1F095
S11305D08130910559F027C085E390E025E330E0B0
S11305E0F90120812E7FFC0120831DC085E390E06A
S11305F025E330E0F90120812D7FFC01208313C025
S113060085E390E025E330E0F90120812E7FFC01B1
S1130610208385E390E025E330E0F90120812D7FFC
S1130620FC01208300000F900F90DF91CF9108957B
S1130630CF93DF93CDB7DEB763970FB6F894DEBFE1
S11306400FBECDBF898B7B8B6A8B86E089831A8230
S11306508EE780930B018FEF80930C018981809347
S11306600D01898980930E0110920F018A899B895B
S1130670892F9927809310018A89809311018FEE25
S1130680809312018BE091E093D080E090E0A0E2AF
S1130690B1E48B839C83AD83BE8320E030E04AE7E2
S11306A053E46B817C818D819E81E3D8DC01CB0195
S11306B08F839887A987BA8720E030E040E85FE31A
S11306C06F81788589859A85C3D788232CF481E046
S11306D090E09C878B873BC020E03FEF4FE757E4D7
S11306E06F81788589859A85C0D818163CF520E0F5
S11306F030E040E251E46B817C818D819E81B9D8E8
S1130700DC01CB01BC01CD010FD8DC01CB019C87FE
S11307108B870FC089E190E09E878D878D859E85AC
S11307200197F1F79E878D878B859C8501979C8720
S11307308B878B859C85009769F713C06F817885BB
S113074089859A85F1D7DC01CB019C878B878B85C2
S11307509C85988B8F878F8598890197F1F7988B63
S11307608F87B0DE81309105D1F47CDE8A838A8163
S11307708E37D9F777DE80930C0174DE80930D01F8
S113078071DE80930E016EDE80930F016BDE809329
S1130790100168DE8093110165DE80931201639677
S11307A00FB6F894DEBF0FBECDBFDF91CF91089591
S11307B0CF93DF9300D0CDB7DEB79A838983898145
S11307C09A81FC018081AEDC89819A81FC0181815E
S11307D0A9DC89819A81FC018281A4DC89819A81C6
S11307E0FC0183819FDC89819A81FC0184819ADCEC
S11307F089819A81FC01858195DC89819A81FC013A
S1130800868190DC89819A81FC0187818BDC0F9041
S11308100F90DF91CF910895CF93DF93CDB7DEB7DB
S11308201EDC8DE690E098DC07D4FECFCF93DF93F7
S1130830CDB7DEB780EC90E0FC0180818170882325
S113084021F084E08093C10003C081E08093C10063
S1130850DF91CF910895CF93DF93CDB7DEB72E9775
S11308600FB6F894DEBF0FBECDBFFAD59093C30088
S11308708093C20085E790E06FDC8091C200909184
S1130880C3008BDCC1D662E081E057DE80E090E0FB
S1130890AAE7B4E489839A83AB83BC8320E030E085
S11308A04AE753E469817A818B819C81E2D7DC0138
S11308B0CB018D839E83AF83B88720E030E040E88E
S11308C05FE36D817E818F819885C2D688232CF465
S11308D081E090E09A8789873BC020E03FEF4FE7B3
S11308E057E46D817E818F819885BFD718163CF5BA
S11308F020E030E040E251E469817A818B819C817F
S1130900B8D7DC01CB01BC01CD010ED7DC01CB0192
S11309109A8789870FC089E190E09C878B878B85B4
S11309209C850197F1F79C878B8789859A85019728
S11309309A87898789859A85009769F713C06D819D
S11309407E818F819885F0D6DC01CB019A878987D7
S113095089859A859E878D878D859E850197F1F778
S11309609E878D8762E080E0E8DD82E08093C100AD
S11309708FE790E0F1DB2E960FB6F894DEBF0FBE42
S1130980CDBFDF91CF910895CF93DF93CDB7DEB77D
S113099062970FB6F894DEBF0FBECDBF1A821982DC
S11309A01C821B821ED69A8389835AD59C838B838F
S11309B08091C2009091C3002B813C812817390794
S11309C030F089819A818230910508F482C01A82BC
S11309D0198280E090E8ABE3B5E48D839E83AF8316
S11309E0B88720E030E04AE753E46D817E818F814F
S11309F098853FD7DC01CB0189879A87AB87BC8771
S1130A0020E030E040E85FE369857A858B859C854A
S1130A101FD688232CF481E090E09E878D873BC00D
S1130A2020E03FEF4FE757E469857A858B859C8505
S1130A301CD718163CF520E030E040E251E46D810B
S1130A407E818F81988515D7DC01CB01BC01CD0156
S1130A506BD6DC01CB019E878D870FC089E190E0C6
S1130A60988B8F878F8598890197F1F7988B8F875B
S1130A708D859E8501979E878D878D859E850097A0
S1130A8069F713C069857A858B859C854DD6DC0111
S1130A90CB019E878D878D859E859A8B898B8989CD
S1130AA09A890197F1F79A8B898B9BD59A838983CD
S1130AB0809160009091610029813A8182179307A7
S1130AC020F483E08093C10007C082E08093C100DA
S1130AD003C082E08093C10062960FB6F894DEBF33
S1130AE00FBECDBFDF91CF910895CF93DF93CDB7E4
S1130AF0DEB7A0970FB6F894DEBF0FBECDBF1A8243
S1130B0019821C821B8280EC90E0FC01808182703F
S1130B10882359F480EC90E0FC0120812260FC01E0
S1130B20208361E070E083E083DD63E081E005DD44
S1130B3080E090E0AAE7B4E48D839E83AF83B88716
S1130B4020E030E04AE753E46D817E818F8198850F
S1130B5090D6DC01CB0189879A87AB87BC8720E0DC
S1130B6030E040E85FE369857A858B859C8570D5A4
S1130B7088232CF481E090E09E878D873BC020E0A1
S1130B803FEF4FE757E469857A858B859C856DD661
S1130B9018163CF520E030E040E251E46D817E819E
S1130BA08F81988566D6DC01CB01BC01CD01BCD513
S1130BB0DC01CB019E878D870FC089E190E0988B83
S1130BC08F878F8598890197F1F7988B8F878D850B
S1130BD09E8501979E878D878D859E85009769F7F1
S1130BE013C069857A858B859C859ED5DC01CB01F4
S1130BF09E878D878D859E859A8B898B89899A8915
S1130C000197F1F79A8B898B63E080E096DCFCD442
S1130C1027D49C838B8380E090E8ABE3B5E48B8B93
S1130C209C8BAD8BBE8B20E030E04AE753E46B89AC
S1130C307C898D899E891DD6DC01CB018F8B988F91
S1130C40A98FBA8F20E030E040E85FE36F89788DA8
S1130C50898D9A8DFDD488232CF481E090E09C8FBB
S1130C608B8F3BC020E03FEF4FE757E46F89788DCF
S1130C70898D9A8DFAD518163CF520E030E040E2D3
S1130C8051E46B897C898D899E89F3D5DC01CB0184
S1130C90BC01CD0149D5DC01CB019C8F8B8F0FC0EA
S1130CA089E190E09E8F8D8F8D8D9E8D0197F1F758
S1130CB09E8F8D8F8B8D9C8D01979C8F8B8F8B8DB1
S1130CC09C8D009769F713C06F89788D898D9A8DF3
S1130CD02BD5DC01CB019C8F8B8F8B8D9C8D98A3A6
S1130CE08F8F8F8D98A10197F1F798A38F8FB8D329
S1130CF09C838B8376D49A838983809160009091BE
S1130D00610029813A812817390748F48091C2008B
S1130D109091C3002B813C812817390720F483E08C
S1130D208093C1000FC061E070E086E181DC80EC5B
S1130D3090E0FC0120812D7FFC01208365D482E0BA
S1130D408093C100A0960FB6F894DEBF0FBECDBF4E
S1130D50DF91CF910895CF93DF93CDB7DEB7AE97F0
S1130D600FB6F894DEBF0FBECDBF1A8219821C8263
S1130D701B8261E081E0E1DB80E090E0AAEFB4E473
S1130D808D839E83AF83B88720E030E04AE753E445
S1130D906D817E818F8198856CD5DC01CB0189873B
S1130DA09A87AB87BC8720E030E040E85FE3698541
S1130DB07A858B859C854CD488232CF481E090E043
S1130DC09E878D873BC020E03FEF4FE757E469855E
S1130DD07A858B859C8549D518163CF520E030E052
S1130DE040E251E46D817E818F81988542D5DC019A
S1130DF0CB01BC01CD0198D4DC01CB019E878D874A
S1130E000FC089E190E0988B8F878F85988901972F
S1130E10F1F7988B8F878D859E8501979E878D87A7
S1130E208D859E85009769F713C069857A858B85C2
S1130E309C857AD4DC01CB019E878D878D859E8528
S1130E409A8B898B89899A890197F1F79A8B898B77
S1130E50DBD3C7D39A83898303D39C838B83898110
S1130E609A818230910508F46FC062E081E065DB0D
S1130E7080E090E0AAEFB4E48B8B9C8BAD8BBE8BAF
S1130E8020E030E04AE753E46B897C898D899E89B0
S1130E90F0D4DC01CB018F8B988FA98FBA8F20E01F
S1130EA030E040E85FE36F89788D898D9A8DD0D3E7
S1130EB088232CF481E090E09C8F8B8F3BC020E052
S1130EC03FEF4FE757E46F89788D898D9A8DCDD4A4
S1130ED018163CF520E030E040E251E46B897C894F
S1130EE08D899E89C6D4DC01CB01BC01CD011CD403
S1130EF0DC01CB019C8F8B8F0FC089E190E09E8F2A
S1130F008D8F8D8D9E8D0197F1F79E8F8D8F8B8D9B
S1130F109C8D01979C8F8B8F8B8D9C8D009769F78F
S1130F2013C06F89788D898D9A8DFED3DC01CB0136
S1130F309C8F8B8F8B8D9C8D98A38F8F8F8D98A179
S1130F400197F1F798A38F8F63E081E0F6DA80E0F0
S1130F5090E0AAEFB4E489A39AA3ABA3BCA320E0D6
S1130F6030E04AE753E469A17AA18BA19CA181D422
S1130F70DC01CB018DA39EA3AFA3B8A720E030E092
S1130F8040E85FE36DA17EA18FA198A561D388237A
S1130F902CF481E090E09AA789A73BC020E03FEFC2
S1130FA04FE757E46DA17EA18FA198A55ED41816D2
S1130FB03CF520E030E040E251E469A17AA18BA144
S1130FC09CA157D4DC01CB01BC01CD01ADD3DC0124
S1130FD0CB019AA789A70FC089E190E09CA78BA7B2
S1130FE08BA59CA50197F1F79CA78BA789A59AA52A
S1130FF001979AA789A789A59AA5009769F713C0AD
S11310006DA17EA18FA198A58FD3DC01CB019AA7F6
S113101089A789A59AA59EA78DA78DA59EA50197A9
S1131020F1F79EA78DA7AE960FB6F894DEBF0FBE5C
S1131030CDBFDF91CF910895CF93DF93CDB7DEB7C6
S11310408091C100882F90E082309105A1F0833017
S1131050910534F4009759F08130910551F011C095
S11310608330910551F08430910549F00AC0DEDBEC
S113107008C0F1DB06C088DC04C037DD02C06BDECB
S11310800000DF91CF9108951F920F9200905F00AE
S11310900F9211248F939F93CF93DF93CDB7DEB735
S11310A08091C7009091C80001969093C8008093E6
S11310B0C700DF91CF919F918F910F9000925F00B5
S11310C00F901F9018951F920F9200905F000F923F
S11310D011242F933F934F935F936F937F938F9339
S11310E09F93AF93BF93EF93FF93CF93DF93CDB7CA
S11310F0DEB78091C4008823D9F063D28CE490E0F9
S1131100FC01808191819093C6008093C5008CE49A
S113111090E0FC01118210821092C40085E590E0F9
S113112025E530E0F90120812360FC01208316C00D
S113113038D281E08093C40085E590E025E530E075
S1131140F90120812E7FFC01208385E590E025E5CF
S113115030E0F90120812260FC012083DF91CF91EE
S1131160FF91EF91BF91AF919F918F917F916F917B
S11311705F914F913F912F910F9000925F000F90DC
S11311801F901895CF93DF93CDB7DEB7A0970FB616
S1131190F894DEBF0FBECDBF88E390E028E330E0D3
S11311A0F90120812260FC01208380E090E0A0E22C
S11311B0B1E489839A83AB83BC832BEA3AEA4AEA93
S11311C05EE369817A818B819C8153D3DC01CB01FD
S11311D08D839E83AF83B88720E030E040E85EE3F0
S11311E069817A818B819C8144D3DC01CB0189871D
S11311F09A87AB87BC8720E030E040E85FE36D81ED
S11312007E818F81988524D288231CF481E08D8788
S1131210A7C020E03FEF4FE757E469857A858B85C7
S11312209C8523D318160CF074C020E030E04AE704
S113123054E469817A818B819C810ED2DC01CB01DB
S11312408E879F87A88BB98B20E030E04AE753E470
S11312506E857F85888999890CD3DC01CB018A8BC3
S11312609B8BAC8BBD8B20E030E040E85FE36A8968
S11312707B898C899D89ECD188232CF481E090E0D2
S11312809F8B8E8B3BC020E03FEF4FE757E46A898A
S11312907B898C899D89E9D218163CF520E030E0E1
S11312A040E251E46E857F8588899989E2D2DC0128
S11312B0CB01BC01CD0138D2DC01CB019F8B8E8BDD
S11312C00FC089E190E0998F888F888D998D01975F
S11312D0F1F7998F888F8E899F8901979F8B8E8BC9
S11312E08E899F89009769F73BC06A897B898C89BD
S11312F09D891AD2DC01CB019F8B8E8B8E899F89AD
S11313009B8F8A8F8A8D9B8D0197F1F79B8F8A8F94
S113131027C020E030E04FE753E46D817E818F8168
S11313209885A3D21816A4F469857A858B859C8543
S1131330FBD1DC01CB019D8F8C8F8C8D9D8D9F8F7C
S11313408E8F8E8D9F8D0197F1F79F8F8E8F0EC09C
S11313506D817E818F819885E7D1DC01CB018D87FA
S11313608D8588A388A18A95F1F788A388E390E006
S113137028E330E0F90120812D7FFC012083A09631
S11313800FB6F894DEBF0FBECDBFDF91CF910895A5
S1131390CF93DF93CDB7DEB781E390E021E330E074
S11313A0F9012081277FFC01208382E390E022E37E
S11313B030E0F90120812860FC01208385E590E07C
S11313C025E530E0F90120812C60FC0120838BE5C8
S11313D090E02BE530E0F90120812068FC012083B6
S11313E0DF91CF910895CF93DF93CDB7DEB787E335
S11313F090E027E330E0F90120812260FC012083A2
S113140088E390E028E330E0F90120812D7FFC019E
S1131410208381E390E021E330E0F90120812B7FF8
S1131420FC01208382E390E022E330E0F901208193
S11314302460FC01208385E590E025E530E0F90196
S113144020812360FC0120838BE590E02BE530E0D4
S1131450F90120812064FC012083DF91CF9108955C
S1131460CF93DF93CDB7DEB72E970FB6F894DEBFD8
S11314700FBECDBF87DE80E090E0AAE7B4E48983A5
S11314809A83AB83BC8320E030E04AE753E469816C
S11314907A818B819C81EDD1DC01CB018D839E838C
S11314A0AF83B88720E030E040E85FE36D817E8160
S11314B08F819885CDD088232CF481E090E09A87A1
S11314C089873BC020E03FEF4FE757E46D817E8181
S11314D08F819885CAD118163CF520E030E040E2AF
S11314E051E469817A818B819C81C3D1DC01CB0178
S11314F0BC01CD0119D1DC01CB019A8789870FC0CA
S113150089E190E09C878B878B859C850197F1F717
S11315109C878B8789859A8501979A87898789858E
S11315209A85009769F713C06D817E818F819885B4
S1131530FBD0DC01CB019A87898789859A859E87B0
S11315408D878D859E850197F1F79E878D878AE823
S113155090E002D688E990E0FFD58091C500909193
S1131560C6001BD68DE090E0DDD58AE090E0DAD5A8
S11315708091C5009091C6002E960FB6F894DEBFF8
S11315800FBECDBFDF91CF910895CF93DF93CDB739
S1131590DEB78CE490E0FC0111821082DF91CF91E0
S11315A00895CF93DF93CDB7DEB78EE490E02EE4B9
S11315B030E0F90120812160FC012083DF91CF918B
S11315C00895CF93DF93CDB7DEB78EE490E02EE499
S11315D030E0F90120812E7FFC012083DF91CF913F
S11315E00895CF93DF93CDB7DEB783EA90E0B4D507
S11315F08091C7009091C800D0D58091C700909188
S1131600C800DF91CF910895CF93DF93CDB7DEB7B4
S11316101092C8001092C700DF91CF910895CF9324
S1131620DF93CDB7DEB787E390E027E330E0F9013D
S113163020812160FC01208388E390E028E330E0EE
S1131640F90120812E7FFC012083DF91CF91089541
S113165097D008F481E008950CD0CDC0C5D040F0F7
S1131660BCD030F021F45F3F19F0AEC05111F7C087
S1131670B1C0D2D098F39923C9F35523B1F3951B84
S1131680550BBB27AA2762177307840738F09F5F9F
S11316905F4F220F331F441FAA1FA9F333D00E2E0E
S11316A03AF0E0E830D091505040E695001CCAF77B
S11316B029D0FE2F27D0660F771F881FBB1F261740
S11316C037074807AB07B0E809F0BB0B802DBF0113
S11316D0FF2793585F4F2AF09E3F510568F074C06E
S11316E0BEC05F3FECF3983EDCF386957795679533
S11316F0B795F7959F5FC9F7880F911D96958795C4
S113170097F90895E1E0660F771F881FBB1F6217E2
S113171073078407BA0720F0621B730B840BBA0BA0
S1131720EE1F88F7E09508957FD088F09F5790F0DA
S1131730B92F9927B751A0F0D1F0660F771F881FF2
S1131740991F1AF0BA95C9F712C0B13081F086D04A
S1131750B1E0089583C0672F782F8827B85F39F0E8
S1131760B93FCCF3869577956795B395D9F73EF451
S113177090958095709561957F4F8F4F9F4F0895F9
S1131780990F0008550FAA0BE0E8FEEF161617068E
S1131790E807F907C0F012161306E407F50798F0F6
S11317A0621B730B840B950B39F40A2661F0232B0F
S11317B0242B252B21F408950A2609F4A140A6958B
S11317C08FEF811D811D089597F99F6780E870E070
S11317D060E008959FEF80EC089500240A941616A3
S11317E0170618060906089500240A94121613060B
S11317F0140605060895092E0394000C11F4882399
S113180052F0BB0F40F4BF2B11F460FF04C06F5FB4
S11318107F4F8F4F9F4F089557FD9058440F551F8A
S113182059F05F3F71F04795880F97FB991F61F05E
S11318309F3F79F087950895121613061406551FD5
S1131840F2CF4695F1DF08C0161617061806991F41
S1131850F1CF86957105610508940895E894BB2736
S113186066277727CB0197F908958ADF08F48FEF6D
S113187008950BD0C0CFB1DF28F0B6DF18F0952360
S113188009F0A2CFA7CF1124EACFC6DFA0F3959F1A
S1131890D1F3950F50E0551F629FF001729FBB2753
S11318A0F00DB11D639FAA27F00DB11DAA1F649FFF
S11318B06627B00DA11D661F829F2227B00DA11DB2
S11318C0621F739FB00DA11D621F839FA00D611D38
S11318D0221F749F3327A00D611D231F849F600D59
S11318E0211D822F762F6A2F11249F5750408AF092
S11318F0E1F088234AF0EE0FFF1FBB1F661F771F1E
S1131900881F91505040A9F79E3F510570F05CCF5D
S1131910A6CF5F3FECF3983EDCF386957795679509
S1131920B795F795E7959F5FC1F7FE2B880F911D3B
S11319309695879597F90895A29FB001B39FC0012A
S1131940A39F01D0B29F700D811D1124911D089594
S1071950F894FFCF35
S1131954040053657269616C204F4B2100696E6900
S113196474697A64005553532063616C696200633B
S1131974616C696220646F6E650055535320547220
S1131984696767657265640055535320636F756EA8
S1131994743A0050495240004D6F74696F6E20616F
S11319A46374697665004E6F204D6F74696F6E00C1
S9030000FC
