S00D00004D6F7461732E7372656313
S113000012C01CC150C12AC029C028C027C026C0A4
S113001025C024C023C04EC021C020C01FC01EC0A4
S11300201DC01CC01BC011241FBECFE5D4E0DEBF21
S1130030CDBF10E0A0E6B0E0E8E2F3E002C0059036
S11300400D92A036B107D9F720E0A0E6B0E001C0D8
S11300501D92AF3AB207E1F7C4D064C1D1CF06D044
S11300600DD103D115D15BD1789408958CE089B971
S113007010BC599A88E98AB908955D9BFECF8CB962
S113008008952091650030E02F5F3F4F2F73307843
S113009090916600921759F0E0916500F0E0E959FB
S11300A0FF4F80832093650080E090E008958FEFF8
S11300B09FEF08951F920F920FB60F9211242F9362
S11300C03F934F935F936F937F938F939F93AF93DC
S11300D0BF93EF93FF938CB1D4DFFF91EF91BF9166
S11300E0AF919F918F917F916F915F914F913F91CC
S11300F02F910F900FBE0F901F901895909165004F
S113010080916600981791F0E0916600F0E0E9595B
S1130110FF4F208130E08091660090E001968F735C
S1130120907880936600822F932F08958FEF9FEF2E
S11301300895209165009091660081E0291301C023
S113014080E00895CF93DF93EC01888196DF898165
S113015094DF8A8192DF8B8190DF8C818EDF8D81A9
S11301608CDF8E818ADF8F8188DFDF91CF910895C4
S11301709EE79093A7009FEF9093A80096E090933A
S1130180A9008093AA001092AB007093AC00609316
S1130190AD008FEE8093AE0087EA90E0D3DF83EC6E
S11301A099E00197F1F700C00000C3DF0197C1F4A3
S11301B0A5DF8E37E9F7A2DF8093A8009FDF809345
S11301C0A9009CDF8093AA0099DF8093AB0096DF9F
S11301D08093AC0093DF8093AD0090DF8093AE00FA
S11301E008953DDF2FE33DE083E02150304080401F
S11301F0E1F700C0000061E070E083E0B9DF9AE25B
S113020020E53EEF80E09150204030408040D9F717
S11302100000C09A9FEB27E239E091502040304023
S1130220E1F700C00000C0988FEB97E229E081500D
S113023090402040E1F700C00000D4CF1F920F92FD
S11302400FB60F9211248F939F9380916300909126
S11302506400019690936400809363009F918F9152
S11302600F900FBE0F901F9018958A98929A85B799
S1130270836085BF8BB780648BBF08958C9A9498F4
S1130280939A85B78C6085BF8BB780688BBF0895C0
S11302901DBC1CBC08958EB581608EBD08958EB5BD
S11302A08E7F8EBD08951F920F920FB60F92112468
S11302B02F933F934F935F936F937F938F939F936A
S11302C0AF93BF93EF93FF9380916000882379F0FD
S11302D0E6DF8CB59DB590936200809361001DBCF0
S11302E01CBC1092600085B7846085BF07C0D3DF53
S11302F081E08093600085B78B7F85BFFF91EF918C
S1130300BF91AF919F918F917F916F915F914F9129
S11303103F912F910F900FBE0F901F901895B89A90
S10B0320C0980895F894FFCF82
S9030000FC
