S00D00004D6F7461732E7372656313
S113000012C0D5C24FC22AC029C028C027C026C0EA
S113001032C266C223C052C021C020C01FC01EC04D
S11300201DC01CC01BC011241FBECFE5D4E0DEBF21
S1130030CDBF10E0A0E6B0E0ECECF6E002C0059025
S11300400D92A236B107D9F720E0A2E6B0E001C0D4
S11300501D92A538B207E1F722D136C3D1CF09D01A
S113006081D277D296D28ED205D370D032D2789400
S113007008958CE089B910BC599A88E98AB9089521
S11300805D9BFECF8CB90895282F80916E0090E07F
S113009001966CE070E005D390916F00981759F0C9
S11300A0E0916E00F0E0E059FF4F208380936E00F2
S11300B080E090E008958FEF9FEF08951F920F92D4
S11300C00FB60F9211242F933F934F935F936F9327
S11300D07F938F939F93AF93BF93EF93FF938CB1D1
S11300E0D3DFFF91EF91BF91AF919F918F917F915A
S11300F06F915F914F913F912F910F900FBE0F9091
S11301001F90189590916E0080916F00981791F050
S1130110E0916F00F0E0E059FF4F208180916F0083
S113012090E001966CE070E0BCD280936F00822F67
S113013090E008958FEF9FEF089520916E009091C5
S11301406F0081E0291301C080E00895A09AA19A6C
S1130150A898A9980895813061F4623029F0633039
S113016029F0613099F403C0A89A0895A89AA99A2D
S1130170089581110BC0623029F0633029F0613099
S113018029F403C0A8980895A898A9980895CF932E
S1130190DF93EC01888174DF898172DF8A8170DFEB
S11301A08B816EDF8C816CDF8D816ADF8E8168DFED
S11301B08F81DF91CF9164CF9EE790937C009FEF76
S11301C090937D0096E090937E0080937F00109240
S11301D0800070938100609382008FEE809383008F
S11301E08CE790E0D4DF83EC99E00197F1F700C04D
S11301F00000A3DF8130A9F485DF8E37E9F782DFC1
S113020080937D007FDF80937E007CDF80937F007E
S113021079DF8093800076DF8093810073DF8093A1
S1130220820008958EE780937C008FEF80937D0099
S113023086E080937E0088E480937F0010928000A3
S113024010928100109282008FEE809383008CE7DD
S113025090E09DDF83EC99E00197F1F700C0000086
S11302606CDF8130A9F44EDF8E37E9F74BDF8093E2
S11302707D0048DF80937E0045DF80937F0042DF6E
S1130280809380003FDF809381003CDF8093820075
S113029081E090917F00903409F080E00895DFDEE2
S11302A0D6D0FECF8FEF9FEF9093630080936200D0
S11302B0B9DF882321F080918400816003C080919C
S11302C084008E7F809384008091840080FF02C02C
S11302D084E001C081E08093640008952FE382E408
S11302E09FE0215080409040E1F700C0000045D1DC
S11302F0885C91099093630080936200B6D182E098
S1130300809364000895CF93DF93AAD1EC0161E058
S113031081E021DF8091840082FD02C02297D8F021
S113032062E080E018DF809184008B7F80938400FA
S11303302FEB87E299E0215080409040E1F700C024
S113034000008ED120916000309161002817390798
S113035010F483E001C082E080936400DF91CF91C8
S11303600895809184008B7F809384008091840021
S113037081FD09C08091840082608093840061E0E3
S113038070E083E019DF61E080E0E5DE6ED12FE309
S113039082E49FE0215080409040E1F700C00000DB
S11303A05FD120916000309161008217930730F093
S11303B08091840082FD02C083E017C08091840094
S11303C082FFFACF62E080E0C6DE809184008B7FFA
S11303D08093840061E070E08EE0EEDE8091840022
S11303E08D7F8093840041D182E0809364000895DE
S11303F0CF93DF9361E081E0AEDE2FE78AE196E000
S1130400215080409040E1F700C000002ED128D157
S1130410EC01B3D0229760F062E081E09CDE2FE72C
S11304208AE196E0215080409040E1F700C000004E
S113043063E081E090DE2FE78AE196E0215080407E
S11304409040E1F700C00000DF91CF9108958091C2
S11304506400823069F028F4882341F0813039F057
S11304600895833031F0843029F008951BCF36CFBE
S11304704ACF77CFBDCF1F920F920FB60F921124A0
S11304808F939F9380916800909169000196909357
S11304906900809368009F918F910F900FBE0F9019
S11304A01F9018951F920F920FB60F9211248F93DD
S11304B09F9380916C0090916D00019690936D00D4
S11304C080936C009F918F910F900FBE0F901F909F
S11304D01895C19A83E08A95F1F70000C1980895B0
S11304E01F920F920FB60F9211242F933F934F93A5
S11304F05F936F937F938F939F93AF93BF93EF9388
S1130500FF9380916600909167009C012F5F3F4F9D
S11305103093670020936600843F914049F4D9DF0B
S1130520109267001092660083B78E7F83BF12BE5D
S1130530FF91EF91BF91AF919F918F917F916F91B7
S11305405F914F913F912F910F900FBE0F901F908D
S113055018958B98939A85B78C6085BF8BB7806804
S11305608BBF0895B99AC1988A98929A85B7836087
S113057085BF8BB780648BBF089580916A0090918A
S11305806B00089589B7816089BF83B7816083BF99
S113059008951DBC1CBC89B7846089BF08958EB5BD
S11305A081608EBD08958EB58E7F8EBD08951F9295
S11305B00F920FB60F9211242F933F934F935F9393
S11305C06F937F938F939F93AF93BF93EF93FF9317
S11305D080916500882349F1E6DF8CB59DB5909341
S11305E06B0080936A0010926900109268001DBC31
S11305F01CBC1092650085B7836085BF83B781609A
S113060083BF20916A0030916B00809162009091C9
S113061063002817390798F462E081E09CDD80913B
S113062084008460809384000AC0B9DF81E08093F1
S1130630650085B78E7F85BF85B7826085BFFF91D2
S1130640EF91BF91AF919F918F917F916F915F9146
S11306504F913F912F910F900FBE0F901F901895BF
S113066080916C0090916D00089510926D0010922D
S11306706C000895B89AC0980895AA1BBB1B51E159
S113068007C0AA1FBB1FA617B70710F0A61BB70BFE
S1130690881F991F5A95A9F780959095BC01CD01A3
S11306A0089597FB072E16F4009406D077FD08D022
S11306B0E4DF07FC05D03EF4909581959F4F0895A3
S10F06C0709561957F4F0895F894FFCF6A
S10506CC010027
S9030000FC
